{
  "contractName": "Cryptomeetup",
  "abi": [
    {
      "constant": true,
      "inputs": [
        {
          "name": "interfaceId",
          "type": "bytes4"
        }
      ],
      "name": "supportsInterface",
      "outputs": [
        {
          "name": "",
          "type": "bool"
        }
      ],
      "payable": false,
      "stateMutability": "view",
      "type": "function"
    },
    {
      "constant": true,
      "inputs": [],
      "name": "name",
      "outputs": [
        {
          "name": "",
          "type": "string"
        }
      ],
      "payable": false,
      "stateMutability": "view",
      "type": "function"
    },
    {
      "constant": true,
      "inputs": [
        {
          "name": "tokenId",
          "type": "uint256"
        }
      ],
      "name": "getApproved",
      "outputs": [
        {
          "name": "",
          "type": "address"
        }
      ],
      "payable": false,
      "stateMutability": "view",
      "type": "function"
    },
    {
      "constant": false,
      "inputs": [
        {
          "name": "to",
          "type": "address"
        },
        {
          "name": "tokenId",
          "type": "uint256"
        }
      ],
      "name": "approve",
      "outputs": [],
      "payable": false,
      "stateMutability": "nonpayable",
      "type": "function"
    },
    {
      "constant": false,
      "inputs": [
        {
          "name": "",
          "type": "address"
        },
        {
          "name": "",
          "type": "address"
        },
        {
          "name": "",
          "type": "uint256"
        },
        {
          "name": "",
          "type": "bytes"
        }
      ],
      "name": "onERC721Received",
      "outputs": [
        {
          "name": "",
          "type": "bytes4"
        }
      ],
      "payable": false,
      "stateMutability": "nonpayable",
      "type": "function"
    },
    {
      "constant": true,
      "inputs": [],
      "name": "totalSupply",
      "outputs": [
        {
          "name": "",
          "type": "uint256"
        }
      ],
      "payable": false,
      "stateMutability": "view",
      "type": "function"
    },
    {
      "constant": false,
      "inputs": [
        {
          "name": "from",
          "type": "address"
        },
        {
          "name": "to",
          "type": "address"
        },
        {
          "name": "tokenId",
          "type": "uint256"
        }
      ],
      "name": "transferFrom",
      "outputs": [],
      "payable": false,
      "stateMutability": "nonpayable",
      "type": "function"
    },
    {
      "constant": true,
      "inputs": [
        {
          "name": "owner",
          "type": "address"
        },
        {
          "name": "index",
          "type": "uint256"
        }
      ],
      "name": "tokenOfOwnerByIndex",
      "outputs": [
        {
          "name": "",
          "type": "uint256"
        }
      ],
      "payable": false,
      "stateMutability": "view",
      "type": "function"
    },
    {
      "constant": false,
      "inputs": [],
      "name": "unpause",
      "outputs": [],
      "payable": false,
      "stateMutability": "nonpayable",
      "type": "function"
    },
    {
      "constant": false,
      "inputs": [
        {
          "name": "from",
          "type": "address"
        },
        {
          "name": "to",
          "type": "address"
        },
        {
          "name": "tokenId",
          "type": "uint256"
        }
      ],
      "name": "safeTransferFrom",
      "outputs": [],
      "payable": false,
      "stateMutability": "nonpayable",
      "type": "function"
    },
    {
      "constant": true,
      "inputs": [
        {
          "name": "account",
          "type": "address"
        }
      ],
      "name": "isPauser",
      "outputs": [
        {
          "name": "",
          "type": "bool"
        }
      ],
      "payable": false,
      "stateMutability": "view",
      "type": "function"
    },
    {
      "constant": true,
      "inputs": [
        {
          "name": "index",
          "type": "uint256"
        }
      ],
      "name": "tokenByIndex",
      "outputs": [
        {
          "name": "",
          "type": "uint256"
        }
      ],
      "payable": false,
      "stateMutability": "view",
      "type": "function"
    },
    {
      "constant": true,
      "inputs": [],
      "name": "paused",
      "outputs": [
        {
          "name": "",
          "type": "bool"
        }
      ],
      "payable": false,
      "stateMutability": "view",
      "type": "function"
    },
    {
      "constant": true,
      "inputs": [
        {
          "name": "tokenId",
          "type": "uint256"
        }
      ],
      "name": "ownerOf",
      "outputs": [
        {
          "name": "",
          "type": "address"
        }
      ],
      "payable": false,
      "stateMutability": "view",
      "type": "function"
    },
    {
      "constant": false,
      "inputs": [],
      "name": "renouncePauser",
      "outputs": [],
      "payable": false,
      "stateMutability": "nonpayable",
      "type": "function"
    },
    {
      "constant": true,
      "inputs": [
        {
          "name": "owner",
          "type": "address"
        }
      ],
      "name": "balanceOf",
      "outputs": [
        {
          "name": "",
          "type": "uint256"
        }
      ],
      "payable": false,
      "stateMutability": "view",
      "type": "function"
    },
    {
      "constant": false,
      "inputs": [
        {
          "name": "account",
          "type": "address"
        }
      ],
      "name": "addPauser",
      "outputs": [],
      "payable": false,
      "stateMutability": "nonpayable",
      "type": "function"
    },
    {
      "constant": false,
      "inputs": [],
      "name": "pause",
      "outputs": [],
      "payable": false,
      "stateMutability": "nonpayable",
      "type": "function"
    },
    {
      "constant": true,
      "inputs": [],
      "name": "symbol",
      "outputs": [
        {
          "name": "",
          "type": "string"
        }
      ],
      "payable": false,
      "stateMutability": "view",
      "type": "function"
    },
    {
      "constant": false,
      "inputs": [
        {
          "name": "account",
          "type": "address"
        }
      ],
      "name": "addMinter",
      "outputs": [],
      "payable": false,
      "stateMutability": "nonpayable",
      "type": "function"
    },
    {
      "constant": false,
      "inputs": [],
      "name": "renounceMinter",
      "outputs": [],
      "payable": false,
      "stateMutability": "nonpayable",
      "type": "function"
    },
    {
      "constant": false,
      "inputs": [
        {
          "name": "to",
          "type": "address"
        },
        {
          "name": "approved",
          "type": "bool"
        }
      ],
      "name": "setApprovalForAll",
      "outputs": [],
      "payable": false,
      "stateMutability": "nonpayable",
      "type": "function"
    },
    {
      "constant": true,
      "inputs": [
        {
          "name": "account",
          "type": "address"
        }
      ],
      "name": "isMinter",
      "outputs": [
        {
          "name": "",
          "type": "bool"
        }
      ],
      "payable": false,
      "stateMutability": "view",
      "type": "function"
    },
    {
      "constant": false,
      "inputs": [
        {
          "name": "from",
          "type": "address"
        },
        {
          "name": "to",
          "type": "address"
        },
        {
          "name": "tokenId",
          "type": "uint256"
        },
        {
          "name": "_data",
          "type": "bytes"
        }
      ],
      "name": "safeTransferFrom",
      "outputs": [],
      "payable": false,
      "stateMutability": "nonpayable",
      "type": "function"
    },
    {
      "constant": true,
      "inputs": [
        {
          "name": "tokenId",
          "type": "uint256"
        }
      ],
      "name": "tokenURI",
      "outputs": [
        {
          "name": "",
          "type": "string"
        }
      ],
      "payable": false,
      "stateMutability": "view",
      "type": "function"
    },
    {
      "constant": true,
      "inputs": [
        {
          "name": "owner",
          "type": "address"
        },
        {
          "name": "operator",
          "type": "address"
        }
      ],
      "name": "isApprovedForAll",
      "outputs": [
        {
          "name": "",
          "type": "bool"
        }
      ],
      "payable": false,
      "stateMutability": "view",
      "type": "function"
    },
    {
      "inputs": [],
      "payable": false,
      "stateMutability": "nonpayable",
      "type": "constructor"
    },
    {
      "anonymous": false,
      "inputs": [
        {
          "indexed": true,
          "name": "_itemId",
          "type": "uint256"
        },
        {
          "indexed": true,
          "name": "_owner",
          "type": "address"
        },
        {
          "indexed": false,
          "name": "_price",
          "type": "uint256"
        }
      ],
      "name": "Bought",
      "type": "event"
    },
    {
      "anonymous": false,
      "inputs": [
        {
          "indexed": true,
          "name": "_itemId",
          "type": "uint256"
        },
        {
          "indexed": true,
          "name": "_owner",
          "type": "address"
        },
        {
          "indexed": false,
          "name": "_price",
          "type": "uint256"
        }
      ],
      "name": "Sold",
      "type": "event"
    },
    {
      "anonymous": false,
      "inputs": [
        {
          "indexed": true,
          "name": "account",
          "type": "address"
        }
      ],
      "name": "MinterAdded",
      "type": "event"
    },
    {
      "anonymous": false,
      "inputs": [
        {
          "indexed": true,
          "name": "account",
          "type": "address"
        }
      ],
      "name": "MinterRemoved",
      "type": "event"
    },
    {
      "anonymous": false,
      "inputs": [
        {
          "indexed": false,
          "name": "account",
          "type": "address"
        }
      ],
      "name": "Paused",
      "type": "event"
    },
    {
      "anonymous": false,
      "inputs": [
        {
          "indexed": false,
          "name": "account",
          "type": "address"
        }
      ],
      "name": "Unpaused",
      "type": "event"
    },
    {
      "anonymous": false,
      "inputs": [
        {
          "indexed": true,
          "name": "account",
          "type": "address"
        }
      ],
      "name": "PauserAdded",
      "type": "event"
    },
    {
      "anonymous": false,
      "inputs": [
        {
          "indexed": true,
          "name": "account",
          "type": "address"
        }
      ],
      "name": "PauserRemoved",
      "type": "event"
    },
    {
      "anonymous": false,
      "inputs": [
        {
          "indexed": true,
          "name": "from",
          "type": "address"
        },
        {
          "indexed": true,
          "name": "to",
          "type": "address"
        },
        {
          "indexed": true,
          "name": "tokenId",
          "type": "uint256"
        }
      ],
      "name": "Transfer",
      "type": "event"
    },
    {
      "anonymous": false,
      "inputs": [
        {
          "indexed": true,
          "name": "owner",
          "type": "address"
        },
        {
          "indexed": true,
          "name": "approved",
          "type": "address"
        },
        {
          "indexed": true,
          "name": "tokenId",
          "type": "uint256"
        }
      ],
      "name": "Approval",
      "type": "event"
    },
    {
      "anonymous": false,
      "inputs": [
        {
          "indexed": true,
          "name": "owner",
          "type": "address"
        },
        {
          "indexed": true,
          "name": "operator",
          "type": "address"
        },
        {
          "indexed": false,
          "name": "approved",
          "type": "bool"
        }
      ],
      "name": "ApprovalForAll",
      "type": "event"
    },
    {
      "constant": false,
      "inputs": [
        {
          "name": "contractaddr",
          "type": "address"
        },
        {
          "name": "tokenId",
          "type": "uint256"
        }
      ],
      "name": "transferERC721Token",
      "outputs": [],
      "payable": false,
      "stateMutability": "nonpayable",
      "type": "function"
    },
    {
      "constant": false,
      "inputs": [
        {
          "name": "contractaddr",
          "type": "address"
        }
      ],
      "name": "transferERC20Token",
      "outputs": [],
      "payable": false,
      "stateMutability": "nonpayable",
      "type": "function"
    },
    {
      "constant": false,
      "inputs": [
        {
          "name": "to",
          "type": "address"
        },
        {
          "name": "tokenId",
          "type": "uint256"
        },
        {
          "name": "tokenprice",
          "type": "uint256"
        }
      ],
      "name": "mint",
      "outputs": [
        {
          "name": "",
          "type": "bool"
        }
      ],
      "payable": false,
      "stateMutability": "nonpayable",
      "type": "function"
    },
    {
      "constant": false,
      "inputs": [
        {
          "name": "l",
          "type": "uint256"
        },
        {
          "name": "r",
          "type": "uint256"
        },
        {
          "name": "price",
          "type": "uint256"
        }
      ],
      "name": "init",
      "outputs": [],
      "payable": false,
      "stateMutability": "nonpayable",
      "type": "function"
    },
    {
      "constant": true,
      "inputs": [
        {
          "name": "price",
          "type": "uint256"
        }
      ],
      "name": "calculateDevCut",
      "outputs": [
        {
          "name": "_devCut",
          "type": "uint256"
        }
      ],
      "payable": false,
      "stateMutability": "view",
      "type": "function"
    },
    {
      "constant": true,
      "inputs": [
        {
          "name": "_price",
          "type": "uint256"
        }
      ],
      "name": "calculateNextPrice",
      "outputs": [
        {
          "name": "_nextPrice",
          "type": "uint256"
        }
      ],
      "payable": false,
      "stateMutability": "view",
      "type": "function"
    },
    {
      "constant": true,
      "inputs": [
        {
          "name": "tokenID",
          "type": "uint256"
        }
      ],
      "name": "nextPriceOf",
      "outputs": [
        {
          "name": "",
          "type": "uint256"
        }
      ],
      "payable": false,
      "stateMutability": "view",
      "type": "function"
    },
    {
      "constant": false,
      "inputs": [
        {
          "name": "tokenId",
          "type": "uint256"
        }
      ],
      "name": "buy",
      "outputs": [],
      "payable": true,
      "stateMutability": "payable",
      "type": "function"
    },
    {
      "constant": false,
      "inputs": [],
      "name": "withdrawAll",
      "outputs": [],
      "payable": false,
      "stateMutability": "nonpayable",
      "type": "function"
    },
    {
      "constant": false,
      "inputs": [
        {
          "name": "_amount",
          "type": "uint256"
        }
      ],
      "name": "withdrawAmount",
      "outputs": [],
      "payable": false,
      "stateMutability": "nonpayable",
      "type": "function"
    },
    {
      "constant": true,
      "inputs": [
        {
          "name": "tokenID",
          "type": "uint256"
        }
      ],
      "name": "priceOfToken",
      "outputs": [
        {
          "name": "",
          "type": "uint256"
        }
      ],
      "payable": false,
      "stateMutability": "view",
      "type": "function"
    },
    {
      "constant": true,
      "inputs": [
        {
          "name": "_itemId",
          "type": "uint256"
        }
      ],
      "name": "allOf",
      "outputs": [
        {
          "name": "_owner",
          "type": "address"
        },
        {
          "name": "_price",
          "type": "uint256"
        },
        {
          "name": "_nextPrice",
          "type": "uint256"
        }
      ],
      "payable": false,
      "stateMutability": "view",
      "type": "function"
    },
    {
      "constant": true,
      "inputs": [],
      "name": "getIndexOfGlobal",
      "outputs": [
        {
          "name": "",
          "type": "uint256"
        }
      ],
      "payable": false,
      "stateMutability": "view",
      "type": "function"
    },
    {
      "constant": true,
      "inputs": [
        {
          "name": "index",
          "type": "uint256"
        }
      ],
      "name": "getGlobal",
      "outputs": [
        {
          "name": "_begin",
          "type": "uint256"
        },
        {
          "name": "_end",
          "type": "uint256"
        },
        {
          "name": "_lastone",
          "type": "address"
        }
      ],
      "payable": false,
      "stateMutability": "view",
      "type": "function"
    },
    {
      "constant": true,
      "inputs": [],
      "name": "getNowGlobal",
      "outputs": [
        {
          "name": "_begin",
          "type": "uint256"
        },
        {
          "name": "_end",
          "type": "uint256"
        },
        {
          "name": "_lastone",
          "type": "address"
        }
      ],
      "payable": false,
      "stateMutability": "view",
      "type": "function"
    }
  ],
  "bytecode": "0x6080604052614e20600f556207a120601055621e8480601155624c4b4060125561271060135562278d006014556005601555600460165560036017556002601855603c6019556002601a553480156200005757600080fd5b506040805190810160405280600c81526020017f63727970746f6d656574757000000000000000000000000000000000000000008152506040805190810160405280600381526020017f434d550000000000000000000000000000000000000000000000000000000000815250620001016301ffc9a77c01000000000000000000000000000000000000000000000000000000000262000241640100000000026401000000009004565b6200013e6380ac58cd7c01000000000000000000000000000000000000000000000000000000000262000241640100000000026401000000009004565b6200017b63780e9d637c01000000000000000000000000000000000000000000000000000000000262000241640100000000026401000000009004565b8160099080519060200190620001939291906200052b565b5080600a9080519060200190620001ac9291906200052b565b50620001ea635b5e139f7c01000000000000000000000000000000000000000000000000000000000262000241640100000000026401000000009004565b50506200020633620002ff640100000000026401000000009004565b6000600d60006101000a81548160ff0219169083151502179055506200023b3362000369640100000000026401000000009004565b620005da565b63ffffffff7c010000000000000000000000000000000000000000000000000000000002817bffffffffffffffffffffffffffffffffffffffffffffffffffffffff1916141515156200029357600080fd5b6001600080837bffffffffffffffffffffffffffffffffffffffffffffffffffffffff19167bffffffffffffffffffffffffffffffffffffffffffffffffffffffff1916815260200190815260200160002060006101000a81548160ff02191690831515021790555050565b6200032381600c620003d3640100000000026200313b179091906401000000009004565b8073ffffffffffffffffffffffffffffffffffffffff167f6719d08c1888103bea251a4ed56406bd0c3e69723c8a1686e017e7bbe159b6f860405160405180910390a250565b6200038d81600e620003d3640100000000026200313b179091906401000000009004565b8073ffffffffffffffffffffffffffffffffffffffff167f6ae172837ea30b801fbfcdd4108aa1d5bf8ff775444fd70256b44e6bf3dfc3f660405160405180910390a250565b600073ffffffffffffffffffffffffffffffffffffffff168173ffffffffffffffffffffffffffffffffffffffff16141515156200041057600080fd5b6200042b828262000496640100000000026401000000009004565b1515156200043857600080fd5b60018260000160008373ffffffffffffffffffffffffffffffffffffffff1673ffffffffffffffffffffffffffffffffffffffff16815260200190815260200160002060006101000a81548160ff0219169083151502179055505050565b60008073ffffffffffffffffffffffffffffffffffffffff168273ffffffffffffffffffffffffffffffffffffffff1614151515620004d457600080fd5b8260000160008373ffffffffffffffffffffffffffffffffffffffff1673ffffffffffffffffffffffffffffffffffffffff16815260200190815260200160002060009054906101000a900460ff16905092915050565b828054600181600116156101000203166002900490600052602060002090601f016020900481019282601f106200056e57805160ff19168380011785556200059f565b828001600101855582156200059f579182015b828111156200059e57825182559160200191906001019062000581565b5b509050620005ae9190620005b2565b5090565b620005d791905b80821115620005d3576000816000905550600101620005b9565b5090565b90565b6139eb80620005ea6000396000f3006080604052600436106101f9576000357c0100000000000000000000000000000000000000000000000000000000900463ffffffff16806301ffc9a7146101fe5780630562b9f71461026257806306fdde031461028f578063081812fc1461031f578063095ea7b31461038c578063150b7a02146103d9578063156e29f6146104de57806318160ddd1461054d578063238350c21461057857806323b872dd146105dd5780632e4f43bf1461064a5780632f745c59146106c55780633c490a70146107265780633f4ba83a146107a157806342842e0e146107b857806346fbf68e1461082557806348d2ad2b146108805780634f6ccce7146108cd57806356d7c2c81461090e5780635ba9e48e146109515780635c975abb146109925780636352211e146109c15780636512120514610a2e5780636ef8d66d14610a6f57806370a0823114610a865780637d1f3f1014610add57806382dc1ec414610b085780638456cb5914610b4b578063853828b614610b625780638cd8db8a14610b7957806395d89b4114610bba578063983b2d5614610c4a5780639865027514610c8d578063a22cb46514610ca4578063aa271e1a14610cf3578063b88d4fde14610d4e578063c87b56dd14610e01578063d96a094a14610ea7578063e08503ec14610ec7578063e985e9c514610f08578063f30b412614610f83575b600080fd5b34801561020a57600080fd5b5061024860048036038101908080357bffffffffffffffffffffffffffffffffffffffffffffffffffffffff19169060200190929190505050610fc4565b604051808215151515815260200191505060405180910390f35b34801561026e57600080fd5b5061028d6004803603810190808035906020019092919050505061102b565b005b34801561029b57600080fd5b506102a4611089565b6040518080602001828103825283818151815260200191508051906020019080838360005b838110156102e45780820151818401526020810190506102c9565b50505050905090810190601f1680156103115780820380516001836020036101000a031916815260200191505b509250505060405180910390f35b34801561032b57600080fd5b5061034a6004803603810190808035906020019092919050505061112b565b604051808273ffffffffffffffffffffffffffffffffffffffff1673ffffffffffffffffffffffffffffffffffffffff16815260200191505060405180910390f35b34801561039857600080fd5b506103d7600480360381019080803573ffffffffffffffffffffffffffffffffffffffff1690602001909291908035906020019092919050505061117c565b005b3480156103e557600080fd5b5061048a600480360381019080803573ffffffffffffffffffffffffffffffffffffffff169060200190929190803573ffffffffffffffffffffffffffffffffffffffff16906020019092919080359060200190929190803590602001908201803590602001908080601f01602080910402602001604051908101604052809392919081815260200183838082843782019150505050505091929192905050506111a6565b60405180827bffffffffffffffffffffffffffffffffffffffffffffffffffffffff19167bffffffffffffffffffffffffffffffffffffffffffffffffffffffff1916815260200191505060405180910390f35b3480156104ea57600080fd5b50610533600480360381019080803573ffffffffffffffffffffffffffffffffffffffff16906020019092919080359060200190929190803590602001909291905050506111d6565b604051808215151515815260200191505060405180910390f35b34801561055957600080fd5b5061056261121a565b6040518082815260200191505060405180910390f35b34801561058457600080fd5b5061058d611227565b604051808481526020018381526020018273ffffffffffffffffffffffffffffffffffffffff1673ffffffffffffffffffffffffffffffffffffffff168152602001935050505060405180910390f35b3480156105e957600080fd5b50610648600480360381019080803573ffffffffffffffffffffffffffffffffffffffff169060200190929190803573ffffffffffffffffffffffffffffffffffffffff169060200190929190803590602001909291905050506112b0565b005b34801561065657600080fd5b50610675600480360381019080803590602001909291905050506112dc565b604051808473ffffffffffffffffffffffffffffffffffffffff1673ffffffffffffffffffffffffffffffffffffffff168152602001838152602001828152602001935050505060405180910390f35b3480156106d157600080fd5b50610710600480360381019080803573ffffffffffffffffffffffffffffffffffffffff16906020019092919080359060200190929190505050611309565b6040518082815260200191505060405180910390f35b34801561073257600080fd5b5061075160048036038101908080359060200190929190505050611380565b604051808481526020018381526020018273ffffffffffffffffffffffffffffffffffffffff1673ffffffffffffffffffffffffffffffffffffffff168152602001935050505060405180910390f35b3480156107ad57600080fd5b506107b6611408565b005b3480156107c457600080fd5b50610823600480360381019080803573ffffffffffffffffffffffffffffffffffffffff169060200190929190803573ffffffffffffffffffffffffffffffffffffffff169060200190929190803590602001909291905050506114b7565b005b34801561083157600080fd5b50610866600480360381019080803573ffffffffffffffffffffffffffffffffffffffff1690602001909291905050506114d8565b604051808215151515815260200191505060405180910390f35b34801561088c57600080fd5b506108cb600480360381019080803573ffffffffffffffffffffffffffffffffffffffff169060200190929190803590602001909291905050506114f5565b005b3480156108d957600080fd5b506108f86004803603810190808035906020019092919050505061162c565b6040518082815260200191505060405180910390f35b34801561091a57600080fd5b5061094f600480360381019080803573ffffffffffffffffffffffffffffffffffffffff169060200190929190505050611664565b005b34801561095d57600080fd5b5061097c60048036038101908080359060200190929190505050611864565b6040518082815260200191505060405180910390f35b34801561099e57600080fd5b506109a761187e565b604051808215151515815260200191505060405180910390f35b3480156109cd57600080fd5b506109ec60048036038101908080359060200190929190505050611895565b604051808273ffffffffffffffffffffffffffffffffffffffff1673ffffffffffffffffffffffffffffffffffffffff16815260200191505060405180910390f35b348015610a3a57600080fd5b50610a5960048036038101908080359060200190929190505050611913565b6040518082815260200191505060405180910390f35b348015610a7b57600080fd5b50610a84611a29565b005b348015610a9257600080fd5b50610ac7600480360381019080803573ffffffffffffffffffffffffffffffffffffffff169060200190929190505050611a34565b6040518082815260200191505060405180910390f35b348015610ae957600080fd5b50610af2611ab8565b6040518082815260200191505060405180910390f35b348015610b1457600080fd5b50610b49600480360381019080803573ffffffffffffffffffffffffffffffffffffffff169060200190929190505050611ac2565b005b348015610b5757600080fd5b50610b60611ae2565b005b348015610b6e57600080fd5b50610b77611b92565b005b348015610b8557600080fd5b50610bb8600480360381019080803590602001909291908035906020019092919080359060200190929190505050611c06565b005b348015610bc657600080fd5b50610bcf611d13565b6040518080602001828103825283818151815260200191508051906020019080838360005b83811015610c0f578082015181840152602081019050610bf4565b50505050905090810190601f168015610c3c5780820380516001836020036101000a031916815260200191505b509250505060405180910390f35b348015610c5657600080fd5b50610c8b600480360381019080803573ffffffffffffffffffffffffffffffffffffffff169060200190929190505050611db5565b005b348015610c9957600080fd5b50610ca2611dd5565b005b348015610cb057600080fd5b50610cf1600480360381019080803573ffffffffffffffffffffffffffffffffffffffff169060200190929190803515159060200190929190505050611de0565b005b348015610cff57600080fd5b50610d34600480360381019080803573ffffffffffffffffffffffffffffffffffffffff169060200190929190505050611e0a565b604051808215151515815260200191505060405180910390f35b348015610d5a57600080fd5b50610dff600480360381019080803573ffffffffffffffffffffffffffffffffffffffff169060200190929190803573ffffffffffffffffffffffffffffffffffffffff16906020019092919080359060200190929190803590602001908201803590602001908080601f0160208091040260200160405190810160405280939291908181526020018383808284378201915050505050509192919290505050611e27565b005b348015610e0d57600080fd5b50610e2c60048036038101908080359060200190929190505050611e4f565b6040518080602001828103825283818151815260200191508051906020019080838360005b83811015610e6c578082015181840152602081019050610e51565b50505050905090810190601f168015610e995780820380516001836020036101000a031916815260200191505b509250505060405180910390f35b610ec560048036038101908080359060200190929190505050611f18565b005b348015610ed357600080fd5b50610ef260048036038101908080359060200190929190505050611fc3565b6040518082815260200191505060405180910390f35b348015610f1457600080fd5b50610f69600480360381019080803573ffffffffffffffffffffffffffffffffffffffff169060200190929190803573ffffffffffffffffffffffffffffffffffffffff1690602001909291905050506120d4565b604051808215151515815260200191505060405180910390f35b348015610f8f57600080fd5b50610fae60048036038101908080359060200190929190505050612168565b6040518082815260200191505060405180910390f35b6000806000837bffffffffffffffffffffffffffffffffffffffffffffffffffffffff19167bffffffffffffffffffffffffffffffffffffffffffffffffffffffff1916815260200190815260200160002060009054906101000a900460ff169050919050565b61103433611e0a565b151561103f57600080fd5b3373ffffffffffffffffffffffffffffffffffffffff166108fc829081150290604051600060405180830381858888f19350505050158015611085573d6000803e3d6000fd5b5050565b606060098054600181600116156101000203166002900480601f0160208091040260200160405190810160405280929190818152602001828054600181600116156101000203166002900480156111215780601f106110f657610100808354040283529160200191611121565b820191906000526020600020905b81548152906001019060200180831161110457829003601f168201915b5050505050905090565b600061113682612185565b151561114157600080fd5b6002600083815260200190815260200160002060009054906101000a900473ffffffffffffffffffffffffffffffffffffffff169050919050565b600d60009054906101000a900460ff1615151561119857600080fd5b6111a282826121f7565b5050565b600063150b7a027c0100000000000000000000000000000000000000000000000000000000029050949350505050565b60006111e133611e0a565b15156111ec57600080fd5b6111f6848461233c565b5081601b600085815260200190815260200160002081905550600190509392505050565b6000600780549050905090565b6000806000611237601d54611380565b505050601c6000601d548152602001908152602001600020600001549250601c6000601d548152602001908152602001600020600101549150601c6000601d54815260200190815260200160002060020160009054906101000a900473ffffffffffffffffffffffffffffffffffffffff169050909192565b600d60009054906101000a900460ff161515156112cc57600080fd5b6112d7838383612366565b505050565b60008060006112ea84611895565b6112f385612168565b6112fc86611864565b9250925092509193909250565b600061131483611a34565b8210151561132157600080fd5b600560008473ffffffffffffffffffffffffffffffffffffffff1673ffffffffffffffffffffffffffffffffffffffff1681526020019081526020016000208281548110151561136d57fe5b9060005260206000200154905092915050565b6000806000601d54841115151561139657600080fd5b601c6000858152602001908152602001600020600001549250601c6000858152602001908152602001600020600101549150601c600085815260200190815260200160002060020160009054906101000a900473ffffffffffffffffffffffffffffffffffffffff1690509193909250565b611411336114d8565b151561141c57600080fd5b600d60009054906101000a900460ff16151561143757600080fd5b6000600d60006101000a81548160ff0219169083151502179055507f5db9ee0a495bf2e6ff9c91a7834c1ba4fdd244a5e8aa4e537bd38aeae4b073aa33604051808273ffffffffffffffffffffffffffffffffffffffff1673ffffffffffffffffffffffffffffffffffffffff16815260200191505060405180910390a1565b6114d38383836020604051908101604052806000815250611e27565b505050565b60006114ee82600c61238b90919063ffffffff16565b9050919050565b600061150033611e0a565b151561150b57600080fd5b61152a8373ffffffffffffffffffffffffffffffffffffffff1661241f565b151561153557600080fd5b8290508073ffffffffffffffffffffffffffffffffffffffff166342842e0e3033856040518463ffffffff167c0100000000000000000000000000000000000000000000000000000000028152600401808473ffffffffffffffffffffffffffffffffffffffff1673ffffffffffffffffffffffffffffffffffffffff1681526020018373ffffffffffffffffffffffffffffffffffffffff1673ffffffffffffffffffffffffffffffffffffffff1681526020018281526020019350505050600060405180830381600087803b15801561160f57600080fd5b505af1158015611623573d6000803e3d6000fd5b50505050505050565b600061163661121a565b8210151561164357600080fd5b60078281548110151561165257fe5b90600052602060002001549050919050565b60008061167033611e0a565b151561167b57600080fd5b61169a8373ffffffffffffffffffffffffffffffffffffffff1661241f565b15156116a557600080fd5b8291508173ffffffffffffffffffffffffffffffffffffffff166370a08231306040518263ffffffff167c0100000000000000000000000000000000000000000000000000000000028152600401808273ffffffffffffffffffffffffffffffffffffffff1673ffffffffffffffffffffffffffffffffffffffff168152602001915050602060405180830381600087803b15801561174357600080fd5b505af1158015611757573d6000803e3d6000fd5b505050506040513d602081101561176d57600080fd5b810190808051906020019092919050505090508173ffffffffffffffffffffffffffffffffffffffff1663a9059cbb33836040518363ffffffff167c0100000000000000000000000000000000000000000000000000000000028152600401808373ffffffffffffffffffffffffffffffffffffffff1673ffffffffffffffffffffffffffffffffffffffff16815260200182815260200192505050602060405180830381600087803b15801561182357600080fd5b505af1158015611837573d6000803e3d6000fd5b505050506040513d602081101561184d57600080fd5b810190808051906020019092919050505050505050565b600061187761187283612168565b611fc3565b9050919050565b6000600d60009054906101000a900460ff16905090565b6000806001600084815260200190815260200160002060009054906101000a900473ffffffffffffffffffffffffffffffffffffffff169050600073ffffffffffffffffffffffffffffffffffffffff168173ffffffffffffffffffffffffffffffffffffffff161415151561190a57600080fd5b80915050919050565b6000600f5482101561194e5761194760646119396015548561243290919063ffffffff16565b61247090919063ffffffff16565b9050611a24565b6010548210156119875761198060646119726016548561243290919063ffffffff16565b61247090919063ffffffff16565b9050611a24565b6011548210156119c0576119b960646119ab6017548561243290919063ffffffff16565b61247090919063ffffffff16565b9050611a24565b6012548210156119f9576119f260646119e46017548561243290919063ffffffff16565b61247090919063ffffffff16565b9050611a24565b611a216064611a136018548561243290919063ffffffff16565b61247090919063ffffffff16565b90505b919050565b611a323361249a565b565b60008073ffffffffffffffffffffffffffffffffffffffff168273ffffffffffffffffffffffffffffffffffffffff1614151515611a7157600080fd5b600360008373ffffffffffffffffffffffffffffffffffffffff1673ffffffffffffffffffffffffffffffffffffffff168152602001908152602001600020549050919050565b6000601d54905090565b611acb336114d8565b1515611ad657600080fd5b611adf816124f4565b50565b611aeb336114d8565b1515611af657600080fd5b600d60009054906101000a900460ff16151515611b1257600080fd5b6001600d60006101000a81548160ff0219169083151502179055507f62e78cea01bee320cd4e420270b5ea74000d11b0c9f74754ebdbfc544b05a25833604051808273ffffffffffffffffffffffffffffffffffffffff1673ffffffffffffffffffffffffffffffffffffffff16815260200191505060405180910390a1565b611b9b33611e0a565b1515611ba657600080fd5b3373ffffffffffffffffffffffffffffffffffffffff166108fc3073ffffffffffffffffffffffffffffffffffffffff16319081150290604051600060405180830381858888f19350505050158015611c03573d6000803e3d6000fd5b50565b6000611c1133611e0a565b1515611c1c57600080fd5b8390505b82811015611c4157611c333382846111d6565b508080600101915050611c20565b6001601d8190555042601c6000601d54815260200190815260200160002060000181905550611c7b6014544261254e90919063ffffffff16565b601c6000601d548152602001908152602001600020600101819055506000601c6000601d54815260200190815260200160002060020160006101000a81548173ffffffffffffffffffffffffffffffffffffffff021916908373ffffffffffffffffffffffffffffffffffffffff1602179055506000601c6000601d5481526020019081526020016000206003018190555050505050565b6060600a8054600181600116156101000203166002900480601f016020809104026020016040519081016040528092919081815260200182805460018160011615610100020316600290048015611dab5780601f10611d8057610100808354040283529160200191611dab565b820191906000526020600020905b815481529060010190602001808311611d8e57829003601f168201915b5050505050905090565b611dbe33611e0a565b1515611dc957600080fd5b611dd28161256f565b50565b611dde336125c9565b565b600d60009054906101000a900460ff16151515611dfc57600080fd5b611e068282612623565b5050565b6000611e2082600e61238b90919063ffffffff16565b9050919050565b611e328484846112b0565b611e3e8484848461275f565b1515611e4957600080fd5b50505050565b6060611e5a82612185565b1515611e6557600080fd5b600b60008381526020019081526020016000208054600181600116156101000203166002900480601f016020809104026020016040519081016040528092919081815260200182805460018160011615610100020316600290048015611f0c5780601f10611ee157610100808354040283529160200191611f0c565b820191906000526020600020905b815481529060010190602001808311611eef57829003601f168201915b50505050509050919050565b6000611f2382612168565b111515611f2f57600080fd5b600073ffffffffffffffffffffffffffffffffffffffff16611f5082611895565b73ffffffffffffffffffffffffffffffffffffffff1614151515611f7357600080fd5b42601c6000601d54815260200190815260200160002060010154111515611fb457611f9c612981565b611fa4612a61565b611faf813334612b76565b611fc0565b611fbf813334612b76565b5b50565b6000600f54821015611ffd57611ff6605f611fe860c88561243290919063ffffffff16565b61247090919063ffffffff16565b90506120cf565b6010548210156120355761202e606061202060878561243290919063ffffffff16565b61247090919063ffffffff16565b90506120cf565b60115482101561206d576120666061612058607d8561243290919063ffffffff16565b61247090919063ffffffff16565b90506120cf565b6012548210156120a55761209e606161209060758561243290919063ffffffff16565b61247090919063ffffffff16565b90506120cf565b6120cc60626120be60738561243290919063ffffffff16565b61247090919063ffffffff16565b90505b919050565b6000600460008473ffffffffffffffffffffffffffffffffffffffff1673ffffffffffffffffffffffffffffffffffffffff16815260200190815260200160002060008373ffffffffffffffffffffffffffffffffffffffff1673ffffffffffffffffffffffffffffffffffffffff16815260200190815260200160002060009054906101000a900460ff16905092915050565b6000601b6000838152602001908152602001600020549050919050565b6000806001600084815260200190815260200160002060009054906101000a900473ffffffffffffffffffffffffffffffffffffffff169050600073ffffffffffffffffffffffffffffffffffffffff168173ffffffffffffffffffffffffffffffffffffffff161415915050919050565b600061220282611895565b90508073ffffffffffffffffffffffffffffffffffffffff168373ffffffffffffffffffffffffffffffffffffffff161415151561223f57600080fd5b8073ffffffffffffffffffffffffffffffffffffffff163373ffffffffffffffffffffffffffffffffffffffff16148061227f575061227e81336120d4565b5b151561228a57600080fd5b826002600084815260200190815260200160002060006101000a81548173ffffffffffffffffffffffffffffffffffffffff021916908373ffffffffffffffffffffffffffffffffffffffff160217905550818373ffffffffffffffffffffffffffffffffffffffff168273ffffffffffffffffffffffffffffffffffffffff167f8c5be1e5ebec7d5bd14f71427d1e84f3dd0314c0f7b2291e5b200ac8c7c3b92560405160405180910390a4505050565b600061234733611e0a565b151561235257600080fd5b61235c8383612f7c565b6001905092915050565b6123703382612fd3565b151561237b57600080fd5b612386838383613068565b505050565b60008073ffffffffffffffffffffffffffffffffffffffff168273ffffffffffffffffffffffffffffffffffffffff16141515156123c857600080fd5b8260000160008373ffffffffffffffffffffffffffffffffffffffff1673ffffffffffffffffffffffffffffffffffffffff16815260200190815260200160002060009054906101000a900460ff16905092915050565b600080823b905060008111915050919050565b60008060008414156124475760009150612469565b828402905082848281151561245857fe5b0414151561246557600080fd5b8091505b5092915050565b60008060008311151561248257600080fd5b828481151561248d57fe5b0490508091505092915050565b6124ae81600c61308c90919063ffffffff16565b8073ffffffffffffffffffffffffffffffffffffffff167fcd265ebaf09df2871cc7bd4133404a235ba12eff2041bb89d9c714a2621c7c7e60405160405180910390a250565b61250881600c61313b90919063ffffffff16565b8073ffffffffffffffffffffffffffffffffffffffff167f6719d08c1888103bea251a4ed56406bd0c3e69723c8a1686e017e7bbe159b6f860405160405180910390a250565b600080828401905083811015151561256557600080fd5b8091505092915050565b61258381600e61313b90919063ffffffff16565b8073ffffffffffffffffffffffffffffffffffffffff167f6ae172837ea30b801fbfcdd4108aa1d5bf8ff775444fd70256b44e6bf3dfc3f660405160405180910390a250565b6125dd81600e61308c90919063ffffffff16565b8073ffffffffffffffffffffffffffffffffffffffff167fe94479a9f7e1952cc78f2d6baab678adc1b772d936c6583def489e524cb6669260405160405180910390a250565b3373ffffffffffffffffffffffffffffffffffffffff168273ffffffffffffffffffffffffffffffffffffffff161415151561265e57600080fd5b80600460003373ffffffffffffffffffffffffffffffffffffffff1673ffffffffffffffffffffffffffffffffffffffff16815260200190815260200160002060008473ffffffffffffffffffffffffffffffffffffffff1673ffffffffffffffffffffffffffffffffffffffff16815260200190815260200160002060006101000a81548160ff0219169083151502179055508173ffffffffffffffffffffffffffffffffffffffff163373ffffffffffffffffffffffffffffffffffffffff167f17307eab39ab6107e8899845ad3d59bd9653f200f220920489ca2b5937696c3183604051808215151515815260200191505060405180910390a35050565b6000806127818573ffffffffffffffffffffffffffffffffffffffff1661241f565b15156127905760019150612978565b8473ffffffffffffffffffffffffffffffffffffffff1663150b7a02338887876040518563ffffffff167c0100000000000000000000000000000000000000000000000000000000028152600401808573ffffffffffffffffffffffffffffffffffffffff1673ffffffffffffffffffffffffffffffffffffffff1681526020018473ffffffffffffffffffffffffffffffffffffffff1673ffffffffffffffffffffffffffffffffffffffff16815260200183815260200180602001828103825283818151815260200191508051906020019080838360005b8381101561288557808201518184015260208101905061286a565b50505050905090810190601f1680156128b25780820380516001836020036101000a031916815260200191505b5095505050505050602060405180830381600087803b1580156128d457600080fd5b505af11580156128e8573d6000803e3d6000fd5b505050506040513d60208110156128fe57600080fd5b8101908080519060200190929190505050905063150b7a027c0100000000000000000000000000000000000000000000000000000000027bffffffffffffffffffffffffffffffffffffffffffffffffffffffff1916817bffffffffffffffffffffffffffffffffffffffffffffffffffffffff19161491505b50949350505050565b600080601c6000601d54815260200190815260200160002060020160009054906101000a900473ffffffffffffffffffffffffffffffffffffffff169150601c6000601d548152602001908152602001600020600301549050600073ffffffffffffffffffffffffffffffffffffffff168273ffffffffffffffffffffffffffffffffffffffff1614151515612a1657600080fd5b8173ffffffffffffffffffffffffffffffffffffffff166108fc829081150290604051600060405180830381858888f19350505050158015612a5c573d6000803e3d6000fd5b505050565b6000600190505b60078054905081111515612a9d57601354601b6000838152602001908152602001600020819055508080600101915050612a68565b601d6000815480929190600101919050555042601c6000601d54815260200190815260200160002060000181905550612ae16014544261254e90919063ffffffff16565b601c6000601d548152602001908152602001600020600101819055506000601c6000601d54815260200190815260200160002060020160006101000a81548173ffffffffffffffffffffffffffffffffffffffff021916908373ffffffffffffffffffffffffffffffffffffffff1602179055506000601c6000601d5481526020019081526020016000206003018190555050565b6000806000806000806000612b8a8a612168565b111515612b9657600080fd5b600073ffffffffffffffffffffffffffffffffffffffff16612bb78a611895565b73ffffffffffffffffffffffffffffffffffffffff1614151515612bda57600080fd5b612be389612168565b8710151515612bf157600080fd5b8773ffffffffffffffffffffffffffffffffffffffff16612c118a611895565b73ffffffffffffffffffffffffffffffffffffffff1614151515612c3457600080fd5b612c538873ffffffffffffffffffffffffffffffffffffffff1661241f565b151515612c5f57600080fd5b600073ffffffffffffffffffffffffffffffffffffffff168873ffffffffffffffffffffffffffffffffffffffff1614151515612c9b57600080fd5b42601c6000601d54815260200190815260200160002060010154111515612cc157600080fd5b612cca89611895565b9550879450612cd889612168565b9350612ced84886131eb90919063ffffffff16565b9250612cfa86868b613068565b612d0389611864565b601b60008b8152602001908152602001600020819055508473ffffffffffffffffffffffffffffffffffffffff16897fd2728f908c7e0feb83c6278798370fcb86b62f236c9dbf1a3f541096c2159040866040518082815260200191505060405180910390a38573ffffffffffffffffffffffffffffffffffffffff16897f66f5cd880edf48cdde6c966e5da0784fcc4c5e85572b8b3b62c4357798d447d7866040518082815260200191505060405180910390a3612dc184611913565b9150612deb6064612ddd601a548761243290919063ffffffff16565b61247090919063ffffffff16565b90508573ffffffffffffffffffffffffffffffffffffffff166108fc612e2c83612e1e86896131eb90919063ffffffff16565b6131eb90919063ffffffff16565b9081150290604051600060405180830381858888f19350505050158015612e57573d6000803e3d6000fd5b506000831115612ea9578473ffffffffffffffffffffffffffffffffffffffff166108fc849081150290604051600060405180830381858888f19350505050158015612ea7573d6000803e3d6000fd5b505b87601c6000601d54815260200190815260200160002060020160006101000a81548173ffffffffffffffffffffffffffffffffffffffff021916908373ffffffffffffffffffffffffffffffffffffffff160217905550612f55612f2e6305f5e100612f206019548b61243290919063ffffffff16565b61247090919063ffffffff16565b601c6000601d5481526020019081526020016000206001015461254e90919063ffffffff16565b601c6000601d54815260200190815260200160002060010181905550505050505050505050565b612f86828261320c565b600780549050600860008381526020019081526020016000208190555060078190806001815401808255809150509060018203906000526020600020016000909192909190915055505050565b600080612fdf83611895565b90508073ffffffffffffffffffffffffffffffffffffffff168473ffffffffffffffffffffffffffffffffffffffff16148061304e57508373ffffffffffffffffffffffffffffffffffffffff166130368461112b565b73ffffffffffffffffffffffffffffffffffffffff16145b8061305f575061305e81856120d4565b5b91505092915050565b6130738383836132b2565b61307d8382613517565b61308782826136b0565b505050565b600073ffffffffffffffffffffffffffffffffffffffff168173ffffffffffffffffffffffffffffffffffffffff16141515156130c857600080fd5b6130d2828261238b565b15156130dd57600080fd5b60008260000160008373ffffffffffffffffffffffffffffffffffffffff1673ffffffffffffffffffffffffffffffffffffffff16815260200190815260200160002060006101000a81548160ff0219169083151502179055505050565b600073ffffffffffffffffffffffffffffffffffffffff168173ffffffffffffffffffffffffffffffffffffffff161415151561317757600080fd5b613181828261238b565b15151561318d57600080fd5b60018260000160008373ffffffffffffffffffffffffffffffffffffffff1673ffffffffffffffffffffffffffffffffffffffff16815260200190815260200160002060006101000a81548160ff0219169083151502179055505050565b6000808383111515156131fd57600080fd5b82840390508091505092915050565b600073ffffffffffffffffffffffffffffffffffffffff168273ffffffffffffffffffffffffffffffffffffffff161415151561324857600080fd5b613252828261373c565b808273ffffffffffffffffffffffffffffffffffffffff16600073ffffffffffffffffffffffffffffffffffffffff167fddf252ad1be2c89b69c2b068fc378daa952ba7f163c4a11628f55a4df523b3ef60405160405180910390a45050565b8273ffffffffffffffffffffffffffffffffffffffff166132d282611895565b73ffffffffffffffffffffffffffffffffffffffff161415156132f457600080fd5b600073ffffffffffffffffffffffffffffffffffffffff168273ffffffffffffffffffffffffffffffffffffffff161415151561333057600080fd5b61333981613754565b61338c6001600360008673ffffffffffffffffffffffffffffffffffffffff1673ffffffffffffffffffffffffffffffffffffffff168152602001908152602001600020546131eb90919063ffffffff16565b600360008573ffffffffffffffffffffffffffffffffffffffff1673ffffffffffffffffffffffffffffffffffffffff168152602001908152602001600020819055506134226001600360008573ffffffffffffffffffffffffffffffffffffffff1673ffffffffffffffffffffffffffffffffffffffff1681526020019081526020016000205461254e90919063ffffffff16565b600360008473ffffffffffffffffffffffffffffffffffffffff1673ffffffffffffffffffffffffffffffffffffffff16815260200190815260200160002081905550816001600083815260200190815260200160002060006101000a81548173ffffffffffffffffffffffffffffffffffffffff021916908373ffffffffffffffffffffffffffffffffffffffff160217905550808273ffffffffffffffffffffffffffffffffffffffff168473ffffffffffffffffffffffffffffffffffffffff167fddf252ad1be2c89b69c2b068fc378daa952ba7f163c4a11628f55a4df523b3ef60405160405180910390a4505050565b60008060006135726001600560008873ffffffffffffffffffffffffffffffffffffffff1673ffffffffffffffffffffffffffffffffffffffff168152602001908152602001600020805490506131eb90919063ffffffff16565b9250600560008673ffffffffffffffffffffffffffffffffffffffff1673ffffffffffffffffffffffffffffffffffffffff168152602001908152602001600020838154811015156135c057fe5b906000526020600020015491506006600085815260200190815260200160002054905081600560008773ffffffffffffffffffffffffffffffffffffffff1673ffffffffffffffffffffffffffffffffffffffff1681526020019081526020016000208281548110151561363057fe5b9060005260206000200181905550806006600084815260200190815260200160002081905550600560008673ffffffffffffffffffffffffffffffffffffffff1673ffffffffffffffffffffffffffffffffffffffff1681526020019081526020016000208054809190600190036136a8919061396e565b505050505050565b6000600560008473ffffffffffffffffffffffffffffffffffffffff1673ffffffffffffffffffffffffffffffffffffffff16815260200190815260200160002082908060018154018082558091505090600182039060005260206000200160009091929091909150559050600181036006600084815260200190815260200160002081905550505050565b6137468282613814565b61375082826136b0565b5050565b600073ffffffffffffffffffffffffffffffffffffffff166002600083815260200190815260200160002060009054906101000a900473ffffffffffffffffffffffffffffffffffffffff1673ffffffffffffffffffffffffffffffffffffffff161415156138115760006002600083815260200190815260200160002060006101000a81548173ffffffffffffffffffffffffffffffffffffffff021916908373ffffffffffffffffffffffffffffffffffffffff1602179055505b50565b600073ffffffffffffffffffffffffffffffffffffffff166001600083815260200190815260200160002060009054906101000a900473ffffffffffffffffffffffffffffffffffffffff1673ffffffffffffffffffffffffffffffffffffffff1614151561388257600080fd5b816001600083815260200190815260200160002060006101000a81548173ffffffffffffffffffffffffffffffffffffffff021916908373ffffffffffffffffffffffffffffffffffffffff1602179055506139276001600360008573ffffffffffffffffffffffffffffffffffffffff1673ffffffffffffffffffffffffffffffffffffffff1681526020019081526020016000205461254e90919063ffffffff16565b600360008473ffffffffffffffffffffffffffffffffffffffff1673ffffffffffffffffffffffffffffffffffffffff168152602001908152602001600020819055505050565b81548183558181111561399557818360005260206000209182019101613994919061399a565b5b505050565b6139bc91905b808211156139b85760008160009055506001016139a0565b5090565b905600a165627a7a7230582062935d88371ea93e279542e8008a19b5f39b9af5a209ea1fb3e44e2f9c8e00fa0029",
  "source": "pragma solidity ^0.4.23;\r\n\r\nimport \"./Config.sol\";\r\n\r\n/**\r\n * @title SafeMath\r\n * @dev Math operations with safety checks that revert on error\r\n */\r\nlibrary SafeMath {\r\n    /**\r\n    * @dev Multiplies two numbers, reverts on overflow.\r\n    */\r\n    function mul(uint256 a, uint256 b) internal pure returns (uint256) {\r\n        // Gas optimization: this is cheaper than requiring 'a' not being zero, but the\r\n        // benefit is lost if 'b' is also tested.\r\n        // See: https://github.com/OpenZeppelin/openzeppelin-solidity/pull/522\r\n        if (a == 0) {\r\n            return 0;\r\n        }\r\n\r\n        uint256 c = a * b;\r\n        require(c / a == b);\r\n\r\n        return c;\r\n    }\r\n\r\n    /**\r\n    * @dev Integer division of two numbers truncating the quotient, reverts on division by zero.\r\n    */\r\n    function div(uint256 a, uint256 b) internal pure returns (uint256) {\r\n        // Solidity only automatically asserts when dividing by 0\r\n        require(b > 0);\r\n        uint256 c = a / b;\r\n        // assert(a == b * c + a % b); // There is no case in which this doesn't hold\r\n\r\n        return c;\r\n    }\r\n\r\n    /**\r\n    * @dev Subtracts two numbers, reverts on overflow (i.e. if subtrahend is greater than minuend).\r\n    */\r\n    function sub(uint256 a, uint256 b) internal pure returns (uint256) {\r\n        require(b <= a);\r\n        uint256 c = a - b;\r\n\r\n        return c;\r\n    }\r\n\r\n    /**\r\n    * @dev Adds two numbers, reverts on overflow.\r\n    */\r\n    function add(uint256 a, uint256 b) internal pure returns (uint256) {\r\n        uint256 c = a + b;\r\n        require(c >= a);\r\n\r\n        return c;\r\n    }\r\n\r\n    /**\r\n    * @dev Divides two numbers and returns the remainder (unsigned integer modulo),\r\n    * reverts when dividing by zero.\r\n    */\r\n    function mod(uint256 a, uint256 b) internal pure returns (uint256) {\r\n        require(b != 0);\r\n        return a % b;\r\n    }\r\n}\r\n\r\n\r\n/**\r\n * Utility library of inline functions on addresses\r\n */\r\nlibrary Address {\r\n    /**\r\n     * Returns whether the target address is a contract\r\n     * @dev This function will return false if invoked during the constructor of a contract,\r\n     * as the code is not actually created until after the constructor finishes.\r\n     * @param account address of the account to check\r\n     * @return whether the target address is a contract\r\n     */\r\n    function isContract(address account) internal view returns (bool) {\r\n        uint256 size;\r\n        // XXX Currently there is no better way to check if there is a contract in an address\r\n        // than to check the size of the code at that address.\r\n        // See https://ethereum.stackexchange.com/a/14016/36603\r\n        // for more details about how this works.\r\n        // TODO Check this again before the Serenity release, because all addresses will be\r\n        // contracts then.\r\n        // solium-disable-next-line security/no-inline-assembly\r\n        assembly { size := extcodesize(account) }\r\n        return size > 0;\r\n    }\r\n}\r\n\r\n\r\n/**\r\n * @title Roles\r\n * @dev Library for managing addresses assigned to a Role.\r\n */\r\nlibrary Roles {\r\n    struct Role {\r\n        mapping (address => bool) bearer;\r\n    }\r\n\r\n    /**\r\n     * @dev give an account access to this role\r\n     */\r\n    function add(Role storage role, address account) internal {\r\n        require(account != address(0));\r\n        require(!has(role, account));\r\n\r\n        role.bearer[account] = true;\r\n    }\r\n\r\n    /**\r\n     * @dev remove an account's access to this role\r\n     */\r\n    function remove(Role storage role, address account) internal {\r\n        require(account != address(0));\r\n        require(has(role, account));\r\n\r\n        role.bearer[account] = false;\r\n    }\r\n\r\n    /**\r\n     * @dev check if an account has this role\r\n     * @return bool\r\n     */\r\n    function has(Role storage role, address account) internal view returns (bool) {\r\n        require(account != address(0));\r\n        return role.bearer[account];\r\n    }\r\n}\r\n\r\n\r\n/**\r\n * @title IERC165\r\n * @dev https://github.com/ethereum/EIPs/blob/master/EIPS/eip-165.md\r\n */\r\ninterface IERC165 {\r\n    /**\r\n     * @notice Query if a contract implements an interface\r\n     * @param interfaceId The interface identifier, as specified in ERC-165\r\n     * @dev Interface identification is specified in ERC-165. This function\r\n     * uses less than 30,000 gas.\r\n     */\r\n    function supportsInterface(bytes4 interfaceId) external view returns (bool);\r\n}\r\n\r\n\r\n/**\r\n * @title ERC20 interface\r\n * @dev see https://github.com/ethereum/EIPs/issues/20\r\n */\r\ninterface IERC20 {\r\n    function totalSupply() external view returns (uint256);\r\n\r\n    function balanceOf(address who) external view returns (uint256);\r\n\r\n    function allowance(address owner, address spender) external view returns (uint256);\r\n\r\n    function transfer(address to, uint256 value) external returns (bool);\r\n\r\n    function approve(address spender, uint256 value) external returns (bool);\r\n\r\n    function transferFrom(address from, address to, uint256 value) external returns (bool);\r\n\r\n    event Transfer(address indexed from, address indexed to, uint256 value);\r\n\r\n    event Approval(address indexed owner, address indexed spender, uint256 value);\r\n}\r\n\r\n\r\n/**\r\n * @title ERC721 Non-Fungible Token Standard basic interface\r\n * @dev see https://github.com/ethereum/EIPs/blob/master/EIPS/eip-721.md\r\n */\r\ncontract IERC721 is IERC165 {\r\n    event Transfer(address indexed from, address indexed to, uint256 indexed tokenId);\r\n    event Approval(address indexed owner, address indexed approved, uint256 indexed tokenId);\r\n    event ApprovalForAll(address indexed owner, address indexed operator, bool approved);\r\n\r\n    function balanceOf(address owner) public view returns (uint256 balance);\r\n    function ownerOf(uint256 tokenId) public view returns (address owner);\r\n\r\n    function approve(address to, uint256 tokenId) public;\r\n    function getApproved(uint256 tokenId) public view returns (address operator);\r\n\r\n    function setApprovalForAll(address operator, bool _approved) public;\r\n    function isApprovedForAll(address owner, address operator) public view returns (bool);\r\n\r\n    function transferFrom(address from, address to, uint256 tokenId) public;\r\n    function safeTransferFrom(address from, address to, uint256 tokenId) public;\r\n\r\n    function safeTransferFrom(address from, address to, uint256 tokenId, bytes data) public;\r\n}\r\n\r\n\r\n/**\r\n * @title ERC-721 Non-Fungible Token Standard, optional enumeration extension\r\n * @dev See https://github.com/ethereum/EIPs/blob/master/EIPS/eip-721.md\r\n */\r\ncontract IERC721Enumerable is IERC721 {\r\n    function totalSupply() public view returns (uint256);\r\n    function tokenOfOwnerByIndex(address owner, uint256 index) public view returns (uint256 tokenId);\r\n\r\n    function tokenByIndex(uint256 index) public view returns (uint256);\r\n}\r\n\r\n\r\n/**\r\n * @title ERC721 token receiver interface\r\n * @dev Interface for any contract that wants to support safeTransfers\r\n * from ERC721 asset contracts.\r\n */\r\ncontract IERC721Receiver {\r\n    /**\r\n     * @notice Handle the receipt of an NFT\r\n     * @dev The ERC721 smart contract calls this function on the recipient\r\n     * after a `safeTransfer`. This function MUST return the function selector,\r\n     * otherwise the caller will revert the transaction. The selector to be\r\n     * returned can be obtained as `this.onERC721Received.selector`. This\r\n     * function MAY throw to revert and reject the transfer.\r\n     * Note: the ERC721 contract address is always the message sender.\r\n     * @param operator The address which called `safeTransferFrom` function\r\n     * @param from The address which previously owned the token\r\n     * @param tokenId The NFT identifier which is being transferred\r\n     * @param data Additional data with no specified format\r\n     * @return `bytes4(keccak256(\"onERC721Received(address,address,uint256,bytes)\"))`\r\n     */\r\n    function onERC721Received(address operator, address from, uint256 tokenId, bytes data) public returns (bytes4);\r\n}\r\n\r\n\r\n/**\r\n * @title ERC-721 Non-Fungible Token Standard, optional metadata extension\r\n * @dev See https://github.com/ethereum/EIPs/blob/master/EIPS/eip-721.md\r\n */\r\ncontract IERC721Metadata is IERC721 {\r\n    function name() external view returns (string);\r\n    function symbol() external view returns (string);\r\n    function tokenURI(uint256 tokenId) external view returns (string);\r\n}\r\n\r\n\r\n/**\r\n * @title ERC165\r\n * @author Matt Condon (@shrugs)\r\n * @dev Implements ERC165 using a lookup table.\r\n */\r\ncontract ERC165 is IERC165 {\r\n    bytes4 private constant _InterfaceId_ERC165 = 0x01ffc9a7;\r\n    /**\r\n     * 0x01ffc9a7 ===\r\n     *     bytes4(keccak256('supportsInterface(bytes4)'))\r\n     */\r\n\r\n    /**\r\n     * @dev a mapping of interface id to whether or not it's supported\r\n     */\r\n    mapping(bytes4 => bool) private _supportedInterfaces;\r\n\r\n    /**\r\n     * @dev A contract implementing SupportsInterfaceWithLookup\r\n     * implement ERC165 itself\r\n     */\r\n    constructor () internal {\r\n        _registerInterface(_InterfaceId_ERC165);\r\n    }\r\n\r\n    /**\r\n     * @dev implement supportsInterface(bytes4) using a lookup table\r\n     */\r\n    function supportsInterface(bytes4 interfaceId) external view returns (bool) {\r\n        return _supportedInterfaces[interfaceId];\r\n    }\r\n\r\n    /**\r\n     * @dev internal method for registering an interface\r\n     */\r\n    function _registerInterface(bytes4 interfaceId) internal {\r\n        require(interfaceId != 0xffffffff);\r\n        _supportedInterfaces[interfaceId] = true;\r\n    }\r\n}\r\n\r\n\r\n/**\r\n * @title ERC721 Non-Fungible Token Standard basic implementation\r\n * @dev see https://github.com/ethereum/EIPs/blob/master/EIPS/eip-721.md\r\n */\r\ncontract ERC721 is ERC165, IERC721 {\r\n    using SafeMath for uint256;\r\n    using Address for address;\r\n\r\n    // Equals to `bytes4(keccak256(\"onERC721Received(address,address,uint256,bytes)\"))`\r\n    // which can be also obtained as `IERC721Receiver(0).onERC721Received.selector`\r\n    bytes4 private constant _ERC721_RECEIVED = 0x150b7a02;\r\n\r\n    // Mapping from token ID to owner\r\n    mapping (uint256 => address) private _tokenOwner;\r\n\r\n    // Mapping from token ID to approved address\r\n    mapping (uint256 => address) private _tokenApprovals;\r\n\r\n    // Mapping from owner to number of owned token\r\n    mapping (address => uint256) private _ownedTokensCount;\r\n\r\n    // Mapping from owner to operator approvals\r\n    mapping (address => mapping (address => bool)) private _operatorApprovals;\r\n\r\n    bytes4 private constant _InterfaceId_ERC721 = 0x80ac58cd;\r\n    /*\r\n     * 0x80ac58cd ===\r\n     *     bytes4(keccak256('balanceOf(address)')) ^\r\n     *     bytes4(keccak256('ownerOf(uint256)')) ^\r\n     *     bytes4(keccak256('approve(address,uint256)')) ^\r\n     *     bytes4(keccak256('getApproved(uint256)')) ^\r\n     *     bytes4(keccak256('setApprovalForAll(address,bool)')) ^\r\n     *     bytes4(keccak256('isApprovedForAll(address,address)')) ^\r\n     *     bytes4(keccak256('transferFrom(address,address,uint256)')) ^\r\n     *     bytes4(keccak256('safeTransferFrom(address,address,uint256)')) ^\r\n     *     bytes4(keccak256('safeTransferFrom(address,address,uint256,bytes)'))\r\n     */\r\n\r\n    constructor () public {\r\n        // register the supported interfaces to conform to ERC721 via ERC165\r\n        _registerInterface(_InterfaceId_ERC721);\r\n    }\r\n\r\n    /**\r\n     * @dev Gets the balance of the specified address\r\n     * @param owner address to query the balance of\r\n     * @return uint256 representing the amount owned by the passed address\r\n     */\r\n    function balanceOf(address owner) public view returns (uint256) {\r\n        require(owner != address(0));\r\n        return _ownedTokensCount[owner];\r\n    }\r\n\r\n    /**\r\n     * @dev Gets the owner of the specified token ID\r\n     * @param tokenId uint256 ID of the token to query the owner of\r\n     * @return owner address currently marked as the owner of the given token ID\r\n     */\r\n    function ownerOf(uint256 tokenId) public view returns (address) {\r\n        address owner = _tokenOwner[tokenId];\r\n        require(owner != address(0));\r\n        return owner;\r\n    }\r\n\r\n    /**\r\n     * @dev Approves another address to transfer the given token ID\r\n     * The zero address indicates there is no approved address.\r\n     * There can only be one approved address per token at a given time.\r\n     * Can only be called by the token owner or an approved operator.\r\n     * @param to address to be approved for the given token ID\r\n     * @param tokenId uint256 ID of the token to be approved\r\n     */\r\n    function approve(address to, uint256 tokenId) public {\r\n        address owner = ownerOf(tokenId);\r\n        require(to != owner);\r\n        require(msg.sender == owner || isApprovedForAll(owner, msg.sender));\r\n\r\n        _tokenApprovals[tokenId] = to;\r\n        emit Approval(owner, to, tokenId);\r\n    }\r\n\r\n    /**\r\n     * @dev Gets the approved address for a token ID, or zero if no address set\r\n     * Reverts if the token ID does not exist.\r\n     * @param tokenId uint256 ID of the token to query the approval of\r\n     * @return address currently approved for the given token ID\r\n     */\r\n    function getApproved(uint256 tokenId) public view returns (address) {\r\n        require(_exists(tokenId));\r\n        return _tokenApprovals[tokenId];\r\n    }\r\n\r\n    /**\r\n     * @dev Sets or unsets the approval of a given operator\r\n     * An operator is allowed to transfer all tokens of the sender on their behalf\r\n     * @param to operator address to set the approval\r\n     * @param approved representing the status of the approval to be set\r\n     */\r\n    function setApprovalForAll(address to, bool approved) public {\r\n        require(to != msg.sender);\r\n        _operatorApprovals[msg.sender][to] = approved;\r\n        emit ApprovalForAll(msg.sender, to, approved);\r\n    }\r\n\r\n    /**\r\n     * @dev Tells whether an operator is approved by a given owner\r\n     * @param owner owner address which you want to query the approval of\r\n     * @param operator operator address which you want to query the approval of\r\n     * @return bool whether the given operator is approved by the given owner\r\n     */\r\n    function isApprovedForAll(address owner, address operator) public view returns (bool) {\r\n        return _operatorApprovals[owner][operator];\r\n    }\r\n\r\n    /**\r\n     * @dev Transfers the ownership of a given token ID to another address\r\n     * Usage of this method is discouraged, use `safeTransferFrom` whenever possible\r\n     * Requires the msg sender to be the owner, approved, or operator\r\n     * @param from current owner of the token\r\n     * @param to address to receive the ownership of the given token ID\r\n     * @param tokenId uint256 ID of the token to be transferred\r\n    */\r\n    function transferFrom(address from, address to, uint256 tokenId) public {\r\n        require(_isApprovedOrOwner(msg.sender, tokenId));\r\n\r\n        _transferFrom(from, to, tokenId);\r\n    }\r\n\r\n    /**\r\n     * @dev Safely transfers the ownership of a given token ID to another address\r\n     * If the target address is a contract, it must implement `onERC721Received`,\r\n     * which is called upon a safe transfer, and return the magic value\r\n     * `bytes4(keccak256(\"onERC721Received(address,address,uint256,bytes)\"))`; otherwise,\r\n     * the transfer is reverted.\r\n     *\r\n     * Requires the msg sender to be the owner, approved, or operator\r\n     * @param from current owner of the token\r\n     * @param to address to receive the ownership of the given token ID\r\n     * @param tokenId uint256 ID of the token to be transferred\r\n    */\r\n    function safeTransferFrom(address from, address to, uint256 tokenId) public {\r\n        // solium-disable-next-line arg-overflow\r\n        safeTransferFrom(from, to, tokenId, \"\");\r\n    }\r\n\r\n    /**\r\n     * @dev Safely transfers the ownership of a given token ID to another address\r\n     * If the target address is a contract, it must implement `onERC721Received`,\r\n     * which is called upon a safe transfer, and return the magic value\r\n     * `bytes4(keccak256(\"onERC721Received(address,address,uint256,bytes)\"))`; otherwise,\r\n     * the transfer is reverted.\r\n     * Requires the msg sender to be the owner, approved, or operator\r\n     * @param from current owner of the token\r\n     * @param to address to receive the ownership of the given token ID\r\n     * @param tokenId uint256 ID of the token to be transferred\r\n     * @param _data bytes data to send along with a safe transfer check\r\n     */\r\n    function safeTransferFrom(address from, address to, uint256 tokenId, bytes _data) public {\r\n        transferFrom(from, to, tokenId);\r\n        // solium-disable-next-line arg-overflow\r\n        require(_checkOnERC721Received(from, to, tokenId, _data));\r\n    }\r\n\r\n    /**\r\n     * @dev Returns whether the specified token exists\r\n     * @param tokenId uint256 ID of the token to query the existence of\r\n     * @return whether the token exists\r\n     */\r\n    function _exists(uint256 tokenId) internal view returns (bool) {\r\n        address owner = _tokenOwner[tokenId];\r\n        return owner != address(0);\r\n    }\r\n\r\n    /**\r\n     * @dev Returns whether the given spender can transfer a given token ID\r\n     * @param spender address of the spender to query\r\n     * @param tokenId uint256 ID of the token to be transferred\r\n     * @return bool whether the msg.sender is approved for the given token ID,\r\n     *    is an operator of the owner, or is the owner of the token\r\n     */\r\n    function _isApprovedOrOwner(address spender, uint256 tokenId) internal view returns (bool) {\r\n        address owner = ownerOf(tokenId);\r\n        // Disable solium check because of\r\n        // https://github.com/duaraghav8/Solium/issues/175\r\n        // solium-disable-next-line operator-whitespace\r\n        return (spender == owner || getApproved(tokenId) == spender || isApprovedForAll(owner, spender));\r\n    }\r\n\r\n    /**\r\n     * @dev Internal function to mint a new token\r\n     * Reverts if the given token ID already exists\r\n     * @param to The address that will own the minted token\r\n     * @param tokenId uint256 ID of the token to be minted\r\n     */\r\n    function _mint(address to, uint256 tokenId) internal {\r\n        require(to != address(0));\r\n        _addTokenTo(to, tokenId);\r\n        emit Transfer(address(0), to, tokenId);\r\n    }\r\n\r\n    /**\r\n     * @dev Internal function to burn a specific token\r\n     * Reverts if the token does not exist\r\n     * Deprecated, use _burn(uint256) instead.\r\n     * @param owner owner of the token to burn\r\n     * @param tokenId uint256 ID of the token being burned\r\n     */\r\n    function _burn(address owner, uint256 tokenId) internal {\r\n        _clearApproval(tokenId);\r\n        _removeTokenFrom(owner, tokenId);\r\n        emit Transfer(owner, address(0), tokenId);\r\n    }\r\n\r\n    /**\r\n     * @dev Internal function to burn a specific token\r\n     * Reverts if the token does not exist\r\n     * @param tokenId uint256 ID of the token being burned\r\n     */\r\n    function _burn(uint256 tokenId) internal {\r\n        _burn(ownerOf(tokenId), tokenId);\r\n    }\r\n\r\n    /**\r\n     * @dev Internal function to add a token ID to the list of a given address\r\n     * Note that this function is left internal to make ERC721Enumerable possible, but is not\r\n     * intended to be called by custom derived contracts: in particular, it emits no Transfer event.\r\n     * @param to address representing the new owner of the given token ID\r\n     * @param tokenId uint256 ID of the token to be added to the tokens list of the given address\r\n     */\r\n    function _addTokenTo(address to, uint256 tokenId) internal {\r\n        require(_tokenOwner[tokenId] == address(0));\r\n        _tokenOwner[tokenId] = to;\r\n        _ownedTokensCount[to] = _ownedTokensCount[to].add(1);\r\n    }\r\n\r\n    /**\r\n     * @dev Internal function to remove a token ID from the list of a given address\r\n     * Note that this function is left internal to make ERC721Enumerable possible, but is not\r\n     * intended to be called by custom derived contracts: in particular, it emits no Transfer event,\r\n     * and doesn't clear approvals.\r\n     * @param from address representing the previous owner of the given token ID\r\n     * @param tokenId uint256 ID of the token to be removed from the tokens list of the given address\r\n     */\r\n    function _removeTokenFrom(address from, uint256 tokenId) internal {\r\n        require(ownerOf(tokenId) == from);\r\n        _ownedTokensCount[from] = _ownedTokensCount[from].sub(1);\r\n        _tokenOwner[tokenId] = address(0);\r\n    }\r\n\r\n    /**\r\n     * @dev Internal function to transfer ownership of a given token ID to another address.\r\n     * As opposed to transferFrom, this imposes no restrictions on msg.sender.\r\n     * @param from current owner of the token\r\n     * @param to address to receive the ownership of the given token ID\r\n     * @param tokenId uint256 ID of the token to be transferred\r\n    */\r\n    function _transferFrom(address from, address to, uint256 tokenId) internal {\r\n        require(ownerOf(tokenId) == from);\r\n        require(to != address(0));\r\n\r\n        _clearApproval(tokenId);\r\n\r\n        _ownedTokensCount[from] = _ownedTokensCount[from].sub(1);\r\n        _ownedTokensCount[to] = _ownedTokensCount[to].add(1);\r\n\r\n        _tokenOwner[tokenId] = to;\r\n\r\n        emit Transfer(from, to, tokenId);\r\n    }\r\n\r\n    /**\r\n     * @dev Internal function to invoke `onERC721Received` on a target address\r\n     * The call is not executed if the target address is not a contract\r\n     * @param from address representing the previous owner of the given token ID\r\n     * @param to target address that will receive the tokens\r\n     * @param tokenId uint256 ID of the token to be transferred\r\n     * @param _data bytes optional data to send along with the call\r\n     * @return whether the call correctly returned the expected magic value\r\n     */\r\n    function _checkOnERC721Received(address from, address to, uint256 tokenId, bytes _data) internal returns (bool) {\r\n        if (!to.isContract()) {\r\n            return true;\r\n        }\r\n\r\n        bytes4 retval = IERC721Receiver(to).onERC721Received(msg.sender, from, tokenId, _data);\r\n        return (retval == _ERC721_RECEIVED);\r\n    }\r\n\r\n    /**\r\n     * @dev Private function to clear current approval of a given token ID\r\n     * @param tokenId uint256 ID of the token to be transferred\r\n     */\r\n    function _clearApproval(uint256 tokenId) private {\r\n        if (_tokenApprovals[tokenId] != address(0)) {\r\n            _tokenApprovals[tokenId] = address(0);\r\n        }\r\n    }\r\n}\r\n\r\n\r\n/**\r\n * @title ERC-721 Non-Fungible Token with optional enumeration extension logic\r\n * @dev See https://github.com/ethereum/EIPs/blob/master/EIPS/eip-721.md\r\n */\r\ncontract ERC721Enumerable is ERC165, ERC721, IERC721Enumerable {\r\n    // Mapping from owner to list of owned token IDs\r\n    mapping(address => uint256[]) private _ownedTokens;\r\n\r\n    // Mapping from token ID to index of the owner tokens list\r\n    mapping(uint256 => uint256) private _ownedTokensIndex;\r\n\r\n    // Array with all token ids, used for enumeration\r\n    uint256[] internal _allTokens;\r\n\r\n    // Mapping from token id to position in the allTokens array\r\n    mapping(uint256 => uint256) private _allTokensIndex;\r\n\r\n    bytes4 private constant _InterfaceId_ERC721Enumerable = 0x780e9d63;\r\n    /**\r\n     * 0x780e9d63 ===\r\n     *     bytes4(keccak256('totalSupply()')) ^\r\n     *     bytes4(keccak256('tokenOfOwnerByIndex(address,uint256)')) ^\r\n     *     bytes4(keccak256('tokenByIndex(uint256)'))\r\n     */\r\n\r\n    /**\r\n     * @dev Constructor function\r\n     */\r\n    constructor () public {\r\n        // register the supported interface to conform to ERC721 via ERC165\r\n        _registerInterface(_InterfaceId_ERC721Enumerable);\r\n    }\r\n\r\n    /**\r\n     * @dev Gets the token ID at a given index of the tokens list of the requested owner\r\n     * @param owner address owning the tokens list to be accessed\r\n     * @param index uint256 representing the index to be accessed of the requested tokens list\r\n     * @return uint256 token ID at the given index of the tokens list owned by the requested address\r\n     */\r\n    function tokenOfOwnerByIndex(address owner, uint256 index) public view returns (uint256) {\r\n        require(index < balanceOf(owner));\r\n        return _ownedTokens[owner][index];\r\n    }\r\n\r\n    /**\r\n     * @dev Gets the total amount of tokens stored by the contract\r\n     * @return uint256 representing the total amount of tokens\r\n     */\r\n    function totalSupply() public view returns (uint256) {\r\n        return _allTokens.length;\r\n    }\r\n\r\n    /**\r\n     * @dev Gets the token ID at a given index of all the tokens in this contract\r\n     * Reverts if the index is greater or equal to the total number of tokens\r\n     * @param index uint256 representing the index to be accessed of the tokens list\r\n     * @return uint256 token ID at the given index of the tokens list\r\n     */\r\n    function tokenByIndex(uint256 index) public view returns (uint256) {\r\n        require(index < totalSupply());\r\n        return _allTokens[index];\r\n    }\r\n\r\n    /**\r\n     * @dev Internal function to add a token ID to the list of a given address\r\n     * This function is internal due to language limitations, see the note in ERC721.sol.\r\n     * It is not intended to be called by custom derived contracts: in particular, it emits no Transfer event.\r\n     * @param to address representing the new owner of the given token ID\r\n     * @param tokenId uint256 ID of the token to be added to the tokens list of the given address\r\n     */\r\n    function _addTokenTo(address to, uint256 tokenId) internal {\r\n        super._addTokenTo(to, tokenId);\r\n\r\n        _addTokenToOwnerEnumeration(to, tokenId);\r\n    }\r\n\r\n    /**\r\n     * @dev Internal function to remove a token ID from the list of a given address\r\n     * This function is internal due to language limitations, see the note in ERC721.sol.\r\n     * It is not intended to be called by custom derived contracts: in particular, it emits no Transfer event,\r\n     * and doesn't clear approvals.\r\n     * @param from address representing the previous owner of the given token ID\r\n     * @param tokenId uint256 ID of the token to be removed from the tokens list of the given address\r\n     */\r\n    function _removeTokenFrom(address from, uint256 tokenId) internal {\r\n        super._removeTokenFrom(from, tokenId);\r\n\r\n        _removeTokenFromOwnerEnumeration(from, tokenId);\r\n\r\n        // Since the token is being destroyed, we also clear its index\r\n        // TODO(nventuro): 0 is still a valid index, so arguably this isnt really helpful, remove?\r\n        _ownedTokensIndex[tokenId] = 0;\r\n    }\r\n\r\n    /**\r\n     * @dev Internal function to transfer ownership of a given token ID to another address.\r\n     * As opposed to transferFrom, this imposes no restrictions on msg.sender.\r\n     * @param from current owner of the token\r\n     * @param to address to receive the ownership of the given token ID\r\n     * @param tokenId uint256 ID of the token to be transferred\r\n    */\r\n    function _transferFrom(address from, address to, uint256 tokenId) internal {\r\n        super._transferFrom(from, to, tokenId);\r\n\r\n        _removeTokenFromOwnerEnumeration(from, tokenId);\r\n\r\n        _addTokenToOwnerEnumeration(to, tokenId);\r\n    }\r\n\r\n    /**\r\n     * @dev Internal function to mint a new token\r\n     * Reverts if the given token ID already exists\r\n     * @param to address the beneficiary that will own the minted token\r\n     * @param tokenId uint256 ID of the token to be minted\r\n     */\r\n    function _mint(address to, uint256 tokenId) internal {\r\n        super._mint(to, tokenId);\r\n\r\n        _allTokensIndex[tokenId] = _allTokens.length;\r\n        _allTokens.push(tokenId);\r\n    }\r\n\r\n    /**\r\n     * @dev Internal function to burn a specific token\r\n     * Reverts if the token does not exist\r\n     * Deprecated, use _burn(uint256) instead\r\n     * @param owner owner of the token to burn\r\n     * @param tokenId uint256 ID of the token being burned\r\n     */\r\n    function _burn(address owner, uint256 tokenId) internal {\r\n        super._burn(owner, tokenId);\r\n\r\n        // Reorg all tokens array\r\n        uint256 tokenIndex = _allTokensIndex[tokenId];\r\n        uint256 lastTokenIndex = _allTokens.length.sub(1);\r\n        uint256 lastToken = _allTokens[lastTokenIndex];\r\n\r\n        _allTokens[tokenIndex] = lastToken;\r\n        _allTokens[lastTokenIndex] = 0;\r\n\r\n        _allTokens.length--;\r\n        _allTokensIndex[tokenId] = 0;\r\n        _allTokensIndex[lastToken] = tokenIndex;\r\n    }\r\n\r\n    /**\r\n     * @dev Gets the list of token IDs of the requested owner\r\n     * @param owner address owning the tokens\r\n     * @return uint256[] List of token IDs owned by the requested address\r\n     */\r\n    function _tokensOfOwner(address owner) internal view returns (uint256[] storage) {\r\n        return _ownedTokens[owner];\r\n    }\r\n\r\n    /**\r\n     * @dev Private function to add a token to this extension's ownership-tracking data structures.\r\n     * @param to address representing the new owner of the given token ID\r\n     * @param tokenId uint256 ID of the token to be added to the tokens list of the given address\r\n     */\r\n    function _addTokenToOwnerEnumeration(address to, uint256 tokenId) private {\r\n        uint256 newOwnedTokensLength = _ownedTokens[to].push(tokenId);\r\n        // No need to use SafeMath since the length after a push cannot be zero\r\n        _ownedTokensIndex[tokenId] = newOwnedTokensLength - 1;\r\n    }\r\n\r\n    /**\r\n     * @dev Private function to remove a token from this extension's ownership-tracking data structures. Note that\r\n     * while the token is not assigned a new owner, the _ownedTokensIndex mapping is _not_ updated: this allows for\r\n     * gas optimizations e.g. when performing a transfer operation (avoiding double writes).\r\n     * This has O(1) time complexity, but alters the order of the _ownedTokens array.\r\n     * @param from address representing the previous owner of the given token ID\r\n     * @param tokenId uint256 ID of the token to be removed from the tokens list of the given address\r\n     */\r\n    function _removeTokenFromOwnerEnumeration(address from, uint256 tokenId) private {\r\n        // To prevent a gap in from's tokens array, we store the last token in the index of the token to delete, and\r\n        // then delete the last slot (swap and pop).\r\n\r\n        uint256 lastTokenIndex = _ownedTokens[from].length.sub(1);\r\n        uint256 lastTokenId = _ownedTokens[from][lastTokenIndex];\r\n\r\n        uint256 tokenIndex = _ownedTokensIndex[tokenId];\r\n\r\n        _ownedTokens[from][tokenIndex] = lastTokenId; // Move the last token to the slot of the to-delete token\r\n        _ownedTokensIndex[lastTokenId] = tokenIndex; // Update the moved token's index\r\n\r\n        // Note that this will handle single-element arrays. In that case, both tokenIndex and lastTokenIndex are going\r\n        // to be zero. The swap operation will therefore have no effect, but the token _will_ be deleted during the\r\n        // 'pop' operation.\r\n\r\n        // This also deletes the contents at the last position of the array\r\n        _ownedTokens[from].length--;\r\n\r\n        // Note that _ownedTokensIndex[tokenId] hasn't been cleared: it still points to the old slot (now occcupied by\r\n        // lasTokenId).\r\n    }\r\n}\r\n\r\n\r\ncontract ERC721Metadata is ERC165, ERC721, IERC721Metadata {\r\n    // Token name\r\n    string private _name;\r\n\r\n    // Token symbol\r\n    string private _symbol;\r\n\r\n    // Optional mapping for token URIs\r\n    mapping(uint256 => string) private _tokenURIs;\r\n\r\n    bytes4 private constant InterfaceId_ERC721Metadata = 0x5b5e139f;\r\n    /**\r\n     * 0x5b5e139f ===\r\n     *     bytes4(keccak256('name()')) ^\r\n     *     bytes4(keccak256('symbol()')) ^\r\n     *     bytes4(keccak256('tokenURI(uint256)'))\r\n     */\r\n\r\n    /**\r\n     * @dev Constructor function\r\n     */\r\n    constructor (string name, string symbol) public {\r\n        _name = name;\r\n        _symbol = symbol;\r\n\r\n        // register the supported interfaces to conform to ERC721 via ERC165\r\n        _registerInterface(InterfaceId_ERC721Metadata);\r\n    }\r\n\r\n    /**\r\n     * @dev Gets the token name\r\n     * @return string representing the token name\r\n     */\r\n    function name() external view returns (string) {\r\n        return _name;\r\n    }\r\n\r\n    /**\r\n     * @dev Gets the token symbol\r\n     * @return string representing the token symbol\r\n     */\r\n    function symbol() external view returns (string) {\r\n        return _symbol;\r\n    }\r\n\r\n    /**\r\n     * @dev Returns an URI for a given token ID\r\n     * Throws if the token ID does not exist. May return an empty string.\r\n     * @param tokenId uint256 ID of the token to query\r\n     */\r\n    function tokenURI(uint256 tokenId) external view returns (string) {\r\n        require(_exists(tokenId));\r\n        return _tokenURIs[tokenId];\r\n    }\r\n\r\n    /**\r\n     * @dev Internal function to set the token URI for a given token\r\n     * Reverts if the token ID does not exist\r\n     * @param tokenId uint256 ID of the token to set its URI\r\n     * @param uri string URI to assign\r\n     */\r\n    function _setTokenURI(uint256 tokenId, string uri) internal {\r\n        require(_exists(tokenId));\r\n        _tokenURIs[tokenId] = uri;\r\n    }\r\n\r\n    /**\r\n     * @dev Internal function to burn a specific token\r\n     * Reverts if the token does not exist\r\n     * Deprecated, use _burn(uint256) instead\r\n     * @param owner owner of the token to burn\r\n     * @param tokenId uint256 ID of the token being burned by the msg.sender\r\n     */\r\n    function _burn(address owner, uint256 tokenId) internal {\r\n        super._burn(owner, tokenId);\r\n\r\n        // Clear metadata (if any)\r\n        if (bytes(_tokenURIs[tokenId]).length != 0) {\r\n            delete _tokenURIs[tokenId];\r\n        }\r\n    }\r\n}\r\n\r\n\r\n/**\r\n * @title Full ERC721 Token\r\n * This implementation includes all the required and some optional functionality of the ERC721 standard\r\n * Moreover, it includes approve all functionality using operator terminology\r\n * @dev see https://github.com/ethereum/EIPs/blob/master/EIPS/eip-721.md\r\n */\r\ncontract ERC721Full is ERC721, ERC721Enumerable, ERC721Metadata {\r\n}\r\n\r\n\r\ncontract PauserRole {\r\n    using Roles for Roles.Role;\r\n\r\n    event PauserAdded(address indexed account);\r\n    event PauserRemoved(address indexed account);\r\n\r\n    Roles.Role private _pausers;\r\n\r\n    constructor () internal {\r\n        _addPauser(msg.sender);\r\n    }\r\n\r\n    modifier onlyPauser() {\r\n        require(isPauser(msg.sender));\r\n        _;\r\n    }\r\n\r\n    function isPauser(address account) public view returns (bool) {\r\n        return _pausers.has(account);\r\n    }\r\n\r\n    function addPauser(address account) public onlyPauser {\r\n        _addPauser(account);\r\n    }\r\n\r\n    function renouncePauser() public {\r\n        _removePauser(msg.sender);\r\n    }\r\n\r\n    function _addPauser(address account) internal {\r\n        _pausers.add(account);\r\n        emit PauserAdded(account);\r\n    }\r\n\r\n    function _removePauser(address account) internal {\r\n        _pausers.remove(account);\r\n        emit PauserRemoved(account);\r\n    }\r\n}\r\n\r\n\r\n/**\r\n * @title Pausable\r\n * @dev Base contract which allows children to implement an emergency stop mechanism.\r\n */\r\ncontract Pausable is PauserRole {\r\n    event Paused(address account);\r\n    event Unpaused(address account);\r\n\r\n    bool private _paused;\r\n\r\n    constructor () internal {\r\n        _paused = false;\r\n    }\r\n\r\n    /**\r\n     * @return true if the contract is paused, false otherwise.\r\n     */\r\n    function paused() public view returns (bool) {\r\n        return _paused;\r\n    }\r\n\r\n    /**\r\n     * @dev Modifier to make a function callable only when the contract is not paused.\r\n     */\r\n    modifier whenNotPaused() {\r\n        require(!_paused);\r\n        _;\r\n    }\r\n\r\n    /**\r\n     * @dev Modifier to make a function callable only when the contract is paused.\r\n     */\r\n    modifier whenPaused() {\r\n        require(_paused);\r\n        _;\r\n    }\r\n\r\n    /**\r\n     * @dev called by the owner to pause, triggers stopped state\r\n     */\r\n    function pause() public onlyPauser whenNotPaused {\r\n        _paused = true;\r\n        emit Paused(msg.sender);\r\n    }\r\n\r\n    /**\r\n     * @dev called by the owner to unpause, returns to normal state\r\n     */\r\n    function unpause() public onlyPauser whenPaused {\r\n        _paused = false;\r\n        emit Unpaused(msg.sender);\r\n    }\r\n}\r\n\r\n\r\n/**\r\n * @title ERC721 Non-Fungible Pausable token\r\n * @dev ERC721 modified with pausable transfers.\r\n */\r\ncontract ERC721Pausable is ERC721, Pausable {\r\n    function approve(address to, uint256 tokenId) public whenNotPaused {\r\n        super.approve(to, tokenId);\r\n    }\r\n\r\n    function setApprovalForAll(address to, bool approved) public whenNotPaused {\r\n        super.setApprovalForAll(to, approved);\r\n    }\r\n\r\n    function transferFrom(address from, address to, uint256 tokenId) public whenNotPaused {\r\n        super.transferFrom(from, to, tokenId);\r\n    }\r\n}\r\n\r\n\r\ncontract MinterRole {\r\n    using Roles for Roles.Role;\r\n\r\n    event MinterAdded(address indexed account);\r\n    event MinterRemoved(address indexed account);\r\n\r\n    Roles.Role private _minters;\r\n\r\n    constructor () internal {\r\n        _addMinter(msg.sender);\r\n    }\r\n\r\n    modifier onlyMinter() {\r\n        require(isMinter(msg.sender));\r\n        _;\r\n    }\r\n\r\n    function isMinter(address account) public view returns (bool) {\r\n        return _minters.has(account);\r\n    }\r\n\r\n    function addMinter(address account) public onlyMinter {\r\n        _addMinter(account);\r\n    }\r\n\r\n    function renounceMinter() public {\r\n        _removeMinter(msg.sender);\r\n    }\r\n\r\n    function _addMinter(address account) internal {\r\n        _minters.add(account);\r\n        emit MinterAdded(account);\r\n    }\r\n\r\n    function _removeMinter(address account) internal {\r\n        _minters.remove(account);\r\n        emit MinterRemoved(account);\r\n    }\r\n}\r\n\r\n\r\n/**\r\n * @title ERC721Mintable\r\n * @dev ERC721 minting logic\r\n */\r\ncontract ERC721Mintable is ERC721, MinterRole {\r\n    /**\r\n     * @dev Function to mint tokens\r\n     * @param to The address that will receive the minted tokens.\r\n     * @param tokenId The token id to mint.\r\n     * @return A boolean that indicates if the operation was successful.\r\n     */\r\n    function mint(address to, uint256 tokenId) internal onlyMinter returns (bool) {\r\n        _mint(to, tokenId);\r\n        return true;\r\n    }\r\n}\r\n\r\n\r\ncontract ERC721Holder is IERC721Receiver {\r\n    function onERC721Received(address, address, uint256, bytes) public returns (bytes4) {\r\n        return this.onERC721Received.selector;\r\n    }\r\n}\r\n\r\n\r\ncontract Cryptomeetup is ERC721Full, ERC721Pausable, ERC721Mintable, ERC721Holder, Config {\r\n    mapping (uint256 => uint256) private priceOf;\r\n\r\n    struct Global {\r\n        uint256 begin;\r\n        uint256 end;\r\n        address lastone;\r\n        uint256 pool;\r\n    }\r\n\r\n    mapping(uint256 => Global) global; \r\n    uint256 indexOfGlobal;\r\n\r\n    event Bought(uint256 indexed _itemId, address indexed _owner, uint256 _price);\r\n    event Sold(uint256 indexed _itemId, address indexed _owner, uint256 _price);    \r\n\r\n    constructor() ERC721Metadata(\"cryptomeetup\", \"CMU\") public {\r\n    }\r\n\r\n    function transferERC721Token(address contractaddr, uint256 tokenId) public onlyMinter {\r\n        require(contractaddr.isContract());\r\n        IERC721 _tokenobj = IERC721(contractaddr);\r\n        _tokenobj.safeTransferFrom(address(this), msg.sender, tokenId);\r\n    }\r\n\r\n    function transferERC20Token(address contractaddr) public onlyMinter {\r\n        require(contractaddr.isContract());\r\n        IERC20 _tokenobj = IERC20(contractaddr);\r\n        uint256 _amount = _tokenobj.balanceOf(address(this));\r\n        _tokenobj.transfer(msg.sender, _amount);\r\n    }\r\n\r\n    function mint(address to, uint256 tokenId, uint256 tokenprice) public onlyMinter returns (bool) {\r\n        mint(to, tokenId);\r\n        priceOf[tokenId] = tokenprice;\r\n        return true;\r\n    }\r\n\r\n    function init(uint256 l, uint256 r, uint256 price) public onlyMinter {\r\n        for(uint256 i = l; i < r; i++) {\r\n            mint(msg.sender, i, price);\r\n        }\r\n\r\n        indexOfGlobal = 1;\r\n        global[indexOfGlobal].begin = now;\r\n        global[indexOfGlobal].end = now.add(period);\r\n        global[indexOfGlobal].lastone = address(0);\r\n        global[indexOfGlobal].pool = 0;\r\n    }\r\n\r\n    function calculateDevCut(uint256 price) public view returns (uint256 _devCut) {\r\n        if (price < increaseLimit1) {\r\n            return price.mul(devCut1).div(100); // 5%\r\n        } else if (price < increaseLimit2) {\r\n            return price.mul(devCut2).div(100); // 4%\r\n        } else if (price < increaseLimit3) {\r\n            return price.mul(devCut3).div(100); // 3%\r\n        } else if (price < increaseLimit4) {\r\n            return price.mul(devCut3).div(100); // 3%\r\n        } else {\r\n            return price.mul(devCut4).div(100); // 2%\r\n        }\r\n    }\r\n\r\n    function calculateNextPrice(uint256 _price) public view returns (uint256 _nextPrice) {\r\n        if (_price < increaseLimit1) {\r\n            return _price.mul(200).div(95);\r\n        } else if (_price < increaseLimit2) {\r\n            return _price.mul(135).div(96);\r\n        } else if (_price < increaseLimit3) {\r\n            return _price.mul(125).div(97);\r\n        } else if (_price < increaseLimit4) {\r\n            return _price.mul(117).div(97);\r\n        } else {\r\n            return _price.mul(115).div(98);\r\n        }\r\n    }  \r\n\r\n    function nextPriceOf(uint256 tokenID) public view returns (uint256) {\r\n        return calculateNextPrice(priceOfToken(tokenID));\r\n    }    \r\n\r\n    function buy(uint256 tokenId) payable public {\r\n        require(priceOfToken(tokenId) > 0);\r\n        require(ownerOf(tokenId) != address(0));        \r\n\r\n        if(global[indexOfGlobal].end <= now) {\r\n            awardPool();\r\n            newGlobal();\r\n            buyinternal(tokenId, msg.sender, msg.value);\r\n        } else {\r\n            buyinternal(tokenId, msg.sender, msg.value);\r\n        }\r\n    }\r\n\r\n    function buyinternal(uint256 tokenId, address payer, uint256 amount)  internal {\r\n        require(priceOfToken(tokenId) > 0);\r\n        require(ownerOf(tokenId) != address(0));\r\n        require(amount >= priceOfToken(tokenId));\r\n        require(ownerOf(tokenId) != payer);\r\n        require(!payer.isContract());\r\n        require(payer != address(0));\r\n        require(global[indexOfGlobal].end > now);\r\n\r\n        address oldOwner = ownerOf(tokenId);\r\n        address newOwner = payer;\r\n        uint256 price = priceOfToken(tokenId);\r\n        uint256 excess = amount.sub(price);\r\n\r\n        _transferFrom(oldOwner, newOwner, tokenId);\r\n        priceOf[tokenId] = nextPriceOf(tokenId);\r\n\r\n        emit Bought(tokenId, newOwner, price);\r\n        emit Sold(tokenId, oldOwner, price);\r\n\r\n        // Devevloper's cut which is left in contract and accesed by\r\n        // `withdrawAll` and `withdrawAmountTo` methods.\r\n        uint256 devCut = calculateDevCut(price);\r\n\r\n        uint256 _pool = price.mul(toPool).div(100);\r\n        // Transfer payment to old owner minus the developer's cut.\r\n        oldOwner.transfer(price.sub(devCut).sub(_pool));\r\n\r\n\r\n        if (excess > 0) {\r\n            newOwner.transfer(excess);\r\n        }\r\n\r\n        global[indexOfGlobal].lastone = payer;\r\n        global[indexOfGlobal].end = global[indexOfGlobal].end.add(amount.mul(secondsPerHundredTron).div(1e8));\r\n    }\r\n\r\n    function newGlobal() internal {\r\n        for (uint256 i = 1; i <= _allTokens.length; i++) {\r\n            priceOf[i] = initPrice;\r\n        }\r\n        indexOfGlobal++;\r\n        global[indexOfGlobal].begin = now;\r\n        global[indexOfGlobal].end = now.add(period);\r\n        global[indexOfGlobal].lastone = address(0);\r\n        global[indexOfGlobal].pool = 0;\r\n    }\r\n\r\n    function awardPool() internal {\r\n        address player = global[indexOfGlobal].lastone;\r\n        uint256 amount = global[indexOfGlobal].pool;\r\n        require(player != address(0));\r\n        player.transfer(amount);\r\n    }\r\n\r\n\r\n    /* Withdraw */\r\n    /*\r\n        NOTICE: These functions withdraw the developer's cut which is left\r\n        in the contract by `buy`. User funds are immediately sent to the old\r\n        owner in `buy`, no user funds are left in the contract.\r\n    */\r\n    function withdrawAll() onlyMinter public {\r\n        msg.sender.transfer(address(this).balance);\r\n    }\r\n\r\n    function withdrawAmount(uint256 _amount) onlyMinter public {\r\n        msg.sender.transfer(_amount);\r\n    }\r\n\r\n    function priceOfToken(uint256 tokenID) public view returns (uint256) {\r\n        return priceOf[tokenID];\r\n    }    \r\n\r\n    function allOf(uint256 _itemId) external view returns (address _owner, uint256 _price, uint256 _nextPrice) {\r\n        return (ownerOf(_itemId), priceOfToken(_itemId), nextPriceOf(_itemId));\r\n    }\r\n\r\n    function getIndexOfGlobal() public view returns(uint256) {\r\n        return indexOfGlobal;\r\n    }\r\n\r\n    function getGlobal(uint256 index) public view returns(uint256 _begin, uint256 _end, address _lastone) {\r\n        require(index <= indexOfGlobal);\r\n\r\n        _begin = global[index].begin;\r\n        _end = global[index].end;\r\n        _lastone = global[index].lastone;\r\n    }\r\n\r\n    function getNowGlobal() public view returns(uint256 _begin, uint256 _end, address _lastone) {\r\n        getGlobal(indexOfGlobal);\r\n\r\n        _begin = global[indexOfGlobal].begin;\r\n        _end = global[indexOfGlobal].end;\r\n        _lastone = global[indexOfGlobal].lastone;   \r\n    }\r\n}",
  "sourcePath": "C:\\Users\\xing9\\Documents\\GitHub\\troncryptomeetup\\contracts\\Cryptomeetup.sol",
  "compiler": {
    "name": "solc",
    "version": "0.4.24-develop.2018.8.28+commit.3ba0cdec.mod.Emscripten.clang"
  },
  "schemaVersion": "2.0.1",
  "updatedAt": "2018-12-17T09:26:55.912Z"
}