{
  "contractName": "ERC721Holder",
  "abi": [
    {
      "constant": false,
      "inputs": [
        {
          "name": "",
          "type": "address"
        },
        {
          "name": "",
          "type": "address"
        },
        {
          "name": "",
          "type": "uint256"
        },
        {
          "name": "",
          "type": "bytes"
        }
      ],
      "name": "onERC721Received",
      "outputs": [
        {
          "name": "",
          "type": "bytes4"
        }
      ],
      "payable": false,
      "stateMutability": "nonpayable",
      "type": "function"
    }
  ],
  "bytecode": "0x608060405234801561001057600080fd5b506101a7806100206000396000f300608060405260043610610041576000357c0100000000000000000000000000000000000000000000000000000000900463ffffffff168063150b7a0214610046575b600080fd5b34801561005257600080fd5b506100f7600480360381019080803573ffffffffffffffffffffffffffffffffffffffff169060200190929190803573ffffffffffffffffffffffffffffffffffffffff16906020019092919080359060200190929190803590602001908201803590602001908080601f016020809104026020016040519081016040528093929190818152602001838380828437820191505050505050919291929050505061014b565b60405180827bffffffffffffffffffffffffffffffffffffffffffffffffffffffff19167bffffffffffffffffffffffffffffffffffffffffffffffffffffffff1916815260200191505060405180910390f35b600063150b7a027c01000000000000000000000000000000000000000000000000000000000290509493505050505600a165627a7a723058204e713f838ecdb3bbabf5f002351075faf7693f1988775c8ab8c34911e4de3a930029",
  "source": "pragma solidity ^0.4.23;\r\n\r\nimport \"./Config.sol\";\r\n\r\n/**\r\n * @title SafeMath\r\n * @dev Math operations with safety checks that revert on error\r\n */\r\nlibrary SafeMath {\r\n    /**\r\n    * @dev Multiplies two numbers, reverts on overflow.\r\n    */\r\n    function mul(uint256 a, uint256 b) internal pure returns (uint256) {\r\n        // Gas optimization: this is cheaper than requiring 'a' not being zero, but the\r\n        // benefit is lost if 'b' is also tested.\r\n        // See: https://github.com/OpenZeppelin/openzeppelin-solidity/pull/522\r\n        if (a == 0) {\r\n            return 0;\r\n        }\r\n\r\n        uint256 c = a * b;\r\n        require(c / a == b);\r\n\r\n        return c;\r\n    }\r\n\r\n    /**\r\n    * @dev Integer division of two numbers truncating the quotient, reverts on division by zero.\r\n    */\r\n    function div(uint256 a, uint256 b) internal pure returns (uint256) {\r\n        // Solidity only automatically asserts when dividing by 0\r\n        require(b > 0);\r\n        uint256 c = a / b;\r\n        // assert(a == b * c + a % b); // There is no case in which this doesn't hold\r\n\r\n        return c;\r\n    }\r\n\r\n    /**\r\n    * @dev Subtracts two numbers, reverts on overflow (i.e. if subtrahend is greater than minuend).\r\n    */\r\n    function sub(uint256 a, uint256 b) internal pure returns (uint256) {\r\n        require(b <= a);\r\n        uint256 c = a - b;\r\n\r\n        return c;\r\n    }\r\n\r\n    /**\r\n    * @dev Adds two numbers, reverts on overflow.\r\n    */\r\n    function add(uint256 a, uint256 b) internal pure returns (uint256) {\r\n        uint256 c = a + b;\r\n        require(c >= a);\r\n\r\n        return c;\r\n    }\r\n\r\n    /**\r\n    * @dev Divides two numbers and returns the remainder (unsigned integer modulo),\r\n    * reverts when dividing by zero.\r\n    */\r\n    function mod(uint256 a, uint256 b) internal pure returns (uint256) {\r\n        require(b != 0);\r\n        return a % b;\r\n    }\r\n}\r\n\r\n\r\n/**\r\n * Utility library of inline functions on addresses\r\n */\r\nlibrary Address {\r\n    /**\r\n     * Returns whether the target address is a contract\r\n     * @dev This function will return false if invoked during the constructor of a contract,\r\n     * as the code is not actually created until after the constructor finishes.\r\n     * @param account address of the account to check\r\n     * @return whether the target address is a contract\r\n     */\r\n    function isContract(address account) internal view returns (bool) {\r\n        uint256 size;\r\n        // XXX Currently there is no better way to check if there is a contract in an address\r\n        // than to check the size of the code at that address.\r\n        // See https://ethereum.stackexchange.com/a/14016/36603\r\n        // for more details about how this works.\r\n        // TODO Check this again before the Serenity release, because all addresses will be\r\n        // contracts then.\r\n        // solium-disable-next-line security/no-inline-assembly\r\n        assembly { size := extcodesize(account) }\r\n        return size > 0;\r\n    }\r\n}\r\n\r\n\r\n/**\r\n * @title Roles\r\n * @dev Library for managing addresses assigned to a Role.\r\n */\r\nlibrary Roles {\r\n    struct Role {\r\n        mapping (address => bool) bearer;\r\n    }\r\n\r\n    /**\r\n     * @dev give an account access to this role\r\n     */\r\n    function add(Role storage role, address account) internal {\r\n        require(account != address(0));\r\n        require(!has(role, account));\r\n\r\n        role.bearer[account] = true;\r\n    }\r\n\r\n    /**\r\n     * @dev remove an account's access to this role\r\n     */\r\n    function remove(Role storage role, address account) internal {\r\n        require(account != address(0));\r\n        require(has(role, account));\r\n\r\n        role.bearer[account] = false;\r\n    }\r\n\r\n    /**\r\n     * @dev check if an account has this role\r\n     * @return bool\r\n     */\r\n    function has(Role storage role, address account) internal view returns (bool) {\r\n        require(account != address(0));\r\n        return role.bearer[account];\r\n    }\r\n}\r\n\r\n\r\n/**\r\n * @title IERC165\r\n * @dev https://github.com/ethereum/EIPs/blob/master/EIPS/eip-165.md\r\n */\r\ninterface IERC165 {\r\n    /**\r\n     * @notice Query if a contract implements an interface\r\n     * @param interfaceId The interface identifier, as specified in ERC-165\r\n     * @dev Interface identification is specified in ERC-165. This function\r\n     * uses less than 30,000 gas.\r\n     */\r\n    function supportsInterface(bytes4 interfaceId) external view returns (bool);\r\n}\r\n\r\n\r\n/**\r\n * @title ERC20 interface\r\n * @dev see https://github.com/ethereum/EIPs/issues/20\r\n */\r\ninterface IERC20 {\r\n    function totalSupply() external view returns (uint256);\r\n\r\n    function balanceOf(address who) external view returns (uint256);\r\n\r\n    function allowance(address owner, address spender) external view returns (uint256);\r\n\r\n    function transfer(address to, uint256 value) external returns (bool);\r\n\r\n    function approve(address spender, uint256 value) external returns (bool);\r\n\r\n    function transferFrom(address from, address to, uint256 value) external returns (bool);\r\n\r\n    event Transfer(address indexed from, address indexed to, uint256 value);\r\n\r\n    event Approval(address indexed owner, address indexed spender, uint256 value);\r\n}\r\n\r\n\r\n/**\r\n * @title ERC721 Non-Fungible Token Standard basic interface\r\n * @dev see https://github.com/ethereum/EIPs/blob/master/EIPS/eip-721.md\r\n */\r\ncontract IERC721 is IERC165 {\r\n    event Transfer(address indexed from, address indexed to, uint256 indexed tokenId);\r\n    event Approval(address indexed owner, address indexed approved, uint256 indexed tokenId);\r\n    event ApprovalForAll(address indexed owner, address indexed operator, bool approved);\r\n\r\n    function balanceOf(address owner) public view returns (uint256 balance);\r\n    function ownerOf(uint256 tokenId) public view returns (address owner);\r\n\r\n    function approve(address to, uint256 tokenId) public;\r\n    function getApproved(uint256 tokenId) public view returns (address operator);\r\n\r\n    function setApprovalForAll(address operator, bool _approved) public;\r\n    function isApprovedForAll(address owner, address operator) public view returns (bool);\r\n\r\n    function transferFrom(address from, address to, uint256 tokenId) public;\r\n    function safeTransferFrom(address from, address to, uint256 tokenId) public;\r\n\r\n    function safeTransferFrom(address from, address to, uint256 tokenId, bytes data) public;\r\n}\r\n\r\n\r\n/**\r\n * @title ERC-721 Non-Fungible Token Standard, optional enumeration extension\r\n * @dev See https://github.com/ethereum/EIPs/blob/master/EIPS/eip-721.md\r\n */\r\ncontract IERC721Enumerable is IERC721 {\r\n    function totalSupply() public view returns (uint256);\r\n    function tokenOfOwnerByIndex(address owner, uint256 index) public view returns (uint256 tokenId);\r\n\r\n    function tokenByIndex(uint256 index) public view returns (uint256);\r\n}\r\n\r\n\r\n/**\r\n * @title ERC721 token receiver interface\r\n * @dev Interface for any contract that wants to support safeTransfers\r\n * from ERC721 asset contracts.\r\n */\r\ncontract IERC721Receiver {\r\n    /**\r\n     * @notice Handle the receipt of an NFT\r\n     * @dev The ERC721 smart contract calls this function on the recipient\r\n     * after a `safeTransfer`. This function MUST return the function selector,\r\n     * otherwise the caller will revert the transaction. The selector to be\r\n     * returned can be obtained as `this.onERC721Received.selector`. This\r\n     * function MAY throw to revert and reject the transfer.\r\n     * Note: the ERC721 contract address is always the message sender.\r\n     * @param operator The address which called `safeTransferFrom` function\r\n     * @param from The address which previously owned the token\r\n     * @param tokenId The NFT identifier which is being transferred\r\n     * @param data Additional data with no specified format\r\n     * @return `bytes4(keccak256(\"onERC721Received(address,address,uint256,bytes)\"))`\r\n     */\r\n    function onERC721Received(address operator, address from, uint256 tokenId, bytes data) public returns (bytes4);\r\n}\r\n\r\n\r\n/**\r\n * @title ERC-721 Non-Fungible Token Standard, optional metadata extension\r\n * @dev See https://github.com/ethereum/EIPs/blob/master/EIPS/eip-721.md\r\n */\r\ncontract IERC721Metadata is IERC721 {\r\n    function name() external view returns (string);\r\n    function symbol() external view returns (string);\r\n    function tokenURI(uint256 tokenId) external view returns (string);\r\n}\r\n\r\n\r\n/**\r\n * @title ERC165\r\n * @author Matt Condon (@shrugs)\r\n * @dev Implements ERC165 using a lookup table.\r\n */\r\ncontract ERC165 is IERC165 {\r\n    bytes4 private constant _InterfaceId_ERC165 = 0x01ffc9a7;\r\n    /**\r\n     * 0x01ffc9a7 ===\r\n     *     bytes4(keccak256('supportsInterface(bytes4)'))\r\n     */\r\n\r\n    /**\r\n     * @dev a mapping of interface id to whether or not it's supported\r\n     */\r\n    mapping(bytes4 => bool) private _supportedInterfaces;\r\n\r\n    /**\r\n     * @dev A contract implementing SupportsInterfaceWithLookup\r\n     * implement ERC165 itself\r\n     */\r\n    constructor () internal {\r\n        _registerInterface(_InterfaceId_ERC165);\r\n    }\r\n\r\n    /**\r\n     * @dev implement supportsInterface(bytes4) using a lookup table\r\n     */\r\n    function supportsInterface(bytes4 interfaceId) external view returns (bool) {\r\n        return _supportedInterfaces[interfaceId];\r\n    }\r\n\r\n    /**\r\n     * @dev internal method for registering an interface\r\n     */\r\n    function _registerInterface(bytes4 interfaceId) internal {\r\n        require(interfaceId != 0xffffffff);\r\n        _supportedInterfaces[interfaceId] = true;\r\n    }\r\n}\r\n\r\n\r\n/**\r\n * @title ERC721 Non-Fungible Token Standard basic implementation\r\n * @dev see https://github.com/ethereum/EIPs/blob/master/EIPS/eip-721.md\r\n */\r\ncontract ERC721 is ERC165, IERC721 {\r\n    using SafeMath for uint256;\r\n    using Address for address;\r\n\r\n    // Equals to `bytes4(keccak256(\"onERC721Received(address,address,uint256,bytes)\"))`\r\n    // which can be also obtained as `IERC721Receiver(0).onERC721Received.selector`\r\n    bytes4 private constant _ERC721_RECEIVED = 0x150b7a02;\r\n\r\n    // Mapping from token ID to owner\r\n    mapping (uint256 => address) private _tokenOwner;\r\n\r\n    // Mapping from token ID to approved address\r\n    mapping (uint256 => address) private _tokenApprovals;\r\n\r\n    // Mapping from owner to number of owned token\r\n    mapping (address => uint256) private _ownedTokensCount;\r\n\r\n    // Mapping from owner to operator approvals\r\n    mapping (address => mapping (address => bool)) private _operatorApprovals;\r\n\r\n    bytes4 private constant _InterfaceId_ERC721 = 0x80ac58cd;\r\n    /*\r\n     * 0x80ac58cd ===\r\n     *     bytes4(keccak256('balanceOf(address)')) ^\r\n     *     bytes4(keccak256('ownerOf(uint256)')) ^\r\n     *     bytes4(keccak256('approve(address,uint256)')) ^\r\n     *     bytes4(keccak256('getApproved(uint256)')) ^\r\n     *     bytes4(keccak256('setApprovalForAll(address,bool)')) ^\r\n     *     bytes4(keccak256('isApprovedForAll(address,address)')) ^\r\n     *     bytes4(keccak256('transferFrom(address,address,uint256)')) ^\r\n     *     bytes4(keccak256('safeTransferFrom(address,address,uint256)')) ^\r\n     *     bytes4(keccak256('safeTransferFrom(address,address,uint256,bytes)'))\r\n     */\r\n\r\n    constructor () public {\r\n        // register the supported interfaces to conform to ERC721 via ERC165\r\n        _registerInterface(_InterfaceId_ERC721);\r\n    }\r\n\r\n    /**\r\n     * @dev Gets the balance of the specified address\r\n     * @param owner address to query the balance of\r\n     * @return uint256 representing the amount owned by the passed address\r\n     */\r\n    function balanceOf(address owner) public view returns (uint256) {\r\n        require(owner != address(0));\r\n        return _ownedTokensCount[owner];\r\n    }\r\n\r\n    /**\r\n     * @dev Gets the owner of the specified token ID\r\n     * @param tokenId uint256 ID of the token to query the owner of\r\n     * @return owner address currently marked as the owner of the given token ID\r\n     */\r\n    function ownerOf(uint256 tokenId) public view returns (address) {\r\n        address owner = _tokenOwner[tokenId];\r\n        require(owner != address(0));\r\n        return owner;\r\n    }\r\n\r\n    /**\r\n     * @dev Approves another address to transfer the given token ID\r\n     * The zero address indicates there is no approved address.\r\n     * There can only be one approved address per token at a given time.\r\n     * Can only be called by the token owner or an approved operator.\r\n     * @param to address to be approved for the given token ID\r\n     * @param tokenId uint256 ID of the token to be approved\r\n     */\r\n    function approve(address to, uint256 tokenId) public {\r\n        address owner = ownerOf(tokenId);\r\n        require(to != owner);\r\n        require(msg.sender == owner || isApprovedForAll(owner, msg.sender));\r\n\r\n        _tokenApprovals[tokenId] = to;\r\n        emit Approval(owner, to, tokenId);\r\n    }\r\n\r\n    /**\r\n     * @dev Gets the approved address for a token ID, or zero if no address set\r\n     * Reverts if the token ID does not exist.\r\n     * @param tokenId uint256 ID of the token to query the approval of\r\n     * @return address currently approved for the given token ID\r\n     */\r\n    function getApproved(uint256 tokenId) public view returns (address) {\r\n        require(_exists(tokenId));\r\n        return _tokenApprovals[tokenId];\r\n    }\r\n\r\n    /**\r\n     * @dev Sets or unsets the approval of a given operator\r\n     * An operator is allowed to transfer all tokens of the sender on their behalf\r\n     * @param to operator address to set the approval\r\n     * @param approved representing the status of the approval to be set\r\n     */\r\n    function setApprovalForAll(address to, bool approved) public {\r\n        require(to != msg.sender);\r\n        _operatorApprovals[msg.sender][to] = approved;\r\n        emit ApprovalForAll(msg.sender, to, approved);\r\n    }\r\n\r\n    /**\r\n     * @dev Tells whether an operator is approved by a given owner\r\n     * @param owner owner address which you want to query the approval of\r\n     * @param operator operator address which you want to query the approval of\r\n     * @return bool whether the given operator is approved by the given owner\r\n     */\r\n    function isApprovedForAll(address owner, address operator) public view returns (bool) {\r\n        return _operatorApprovals[owner][operator];\r\n    }\r\n\r\n    /**\r\n     * @dev Transfers the ownership of a given token ID to another address\r\n     * Usage of this method is discouraged, use `safeTransferFrom` whenever possible\r\n     * Requires the msg sender to be the owner, approved, or operator\r\n     * @param from current owner of the token\r\n     * @param to address to receive the ownership of the given token ID\r\n     * @param tokenId uint256 ID of the token to be transferred\r\n    */\r\n    function transferFrom(address from, address to, uint256 tokenId) public {\r\n        require(_isApprovedOrOwner(msg.sender, tokenId));\r\n\r\n        _transferFrom(from, to, tokenId);\r\n    }\r\n\r\n    /**\r\n     * @dev Safely transfers the ownership of a given token ID to another address\r\n     * If the target address is a contract, it must implement `onERC721Received`,\r\n     * which is called upon a safe transfer, and return the magic value\r\n     * `bytes4(keccak256(\"onERC721Received(address,address,uint256,bytes)\"))`; otherwise,\r\n     * the transfer is reverted.\r\n     *\r\n     * Requires the msg sender to be the owner, approved, or operator\r\n     * @param from current owner of the token\r\n     * @param to address to receive the ownership of the given token ID\r\n     * @param tokenId uint256 ID of the token to be transferred\r\n    */\r\n    function safeTransferFrom(address from, address to, uint256 tokenId) public {\r\n        // solium-disable-next-line arg-overflow\r\n        safeTransferFrom(from, to, tokenId, \"\");\r\n    }\r\n\r\n    /**\r\n     * @dev Safely transfers the ownership of a given token ID to another address\r\n     * If the target address is a contract, it must implement `onERC721Received`,\r\n     * which is called upon a safe transfer, and return the magic value\r\n     * `bytes4(keccak256(\"onERC721Received(address,address,uint256,bytes)\"))`; otherwise,\r\n     * the transfer is reverted.\r\n     * Requires the msg sender to be the owner, approved, or operator\r\n     * @param from current owner of the token\r\n     * @param to address to receive the ownership of the given token ID\r\n     * @param tokenId uint256 ID of the token to be transferred\r\n     * @param _data bytes data to send along with a safe transfer check\r\n     */\r\n    function safeTransferFrom(address from, address to, uint256 tokenId, bytes _data) public {\r\n        transferFrom(from, to, tokenId);\r\n        // solium-disable-next-line arg-overflow\r\n        require(_checkOnERC721Received(from, to, tokenId, _data));\r\n    }\r\n\r\n    /**\r\n     * @dev Returns whether the specified token exists\r\n     * @param tokenId uint256 ID of the token to query the existence of\r\n     * @return whether the token exists\r\n     */\r\n    function _exists(uint256 tokenId) internal view returns (bool) {\r\n        address owner = _tokenOwner[tokenId];\r\n        return owner != address(0);\r\n    }\r\n\r\n    /**\r\n     * @dev Returns whether the given spender can transfer a given token ID\r\n     * @param spender address of the spender to query\r\n     * @param tokenId uint256 ID of the token to be transferred\r\n     * @return bool whether the msg.sender is approved for the given token ID,\r\n     *    is an operator of the owner, or is the owner of the token\r\n     */\r\n    function _isApprovedOrOwner(address spender, uint256 tokenId) internal view returns (bool) {\r\n        address owner = ownerOf(tokenId);\r\n        // Disable solium check because of\r\n        // https://github.com/duaraghav8/Solium/issues/175\r\n        // solium-disable-next-line operator-whitespace\r\n        return (spender == owner || getApproved(tokenId) == spender || isApprovedForAll(owner, spender));\r\n    }\r\n\r\n    /**\r\n     * @dev Internal function to mint a new token\r\n     * Reverts if the given token ID already exists\r\n     * @param to The address that will own the minted token\r\n     * @param tokenId uint256 ID of the token to be minted\r\n     */\r\n    function _mint(address to, uint256 tokenId) internal {\r\n        require(to != address(0));\r\n        _addTokenTo(to, tokenId);\r\n        emit Transfer(address(0), to, tokenId);\r\n    }\r\n\r\n    /**\r\n     * @dev Internal function to burn a specific token\r\n     * Reverts if the token does not exist\r\n     * Deprecated, use _burn(uint256) instead.\r\n     * @param owner owner of the token to burn\r\n     * @param tokenId uint256 ID of the token being burned\r\n     */\r\n    function _burn(address owner, uint256 tokenId) internal {\r\n        _clearApproval(tokenId);\r\n        _removeTokenFrom(owner, tokenId);\r\n        emit Transfer(owner, address(0), tokenId);\r\n    }\r\n\r\n    /**\r\n     * @dev Internal function to burn a specific token\r\n     * Reverts if the token does not exist\r\n     * @param tokenId uint256 ID of the token being burned\r\n     */\r\n    function _burn(uint256 tokenId) internal {\r\n        _burn(ownerOf(tokenId), tokenId);\r\n    }\r\n\r\n    /**\r\n     * @dev Internal function to add a token ID to the list of a given address\r\n     * Note that this function is left internal to make ERC721Enumerable possible, but is not\r\n     * intended to be called by custom derived contracts: in particular, it emits no Transfer event.\r\n     * @param to address representing the new owner of the given token ID\r\n     * @param tokenId uint256 ID of the token to be added to the tokens list of the given address\r\n     */\r\n    function _addTokenTo(address to, uint256 tokenId) internal {\r\n        require(_tokenOwner[tokenId] == address(0));\r\n        _tokenOwner[tokenId] = to;\r\n        _ownedTokensCount[to] = _ownedTokensCount[to].add(1);\r\n    }\r\n\r\n    /**\r\n     * @dev Internal function to remove a token ID from the list of a given address\r\n     * Note that this function is left internal to make ERC721Enumerable possible, but is not\r\n     * intended to be called by custom derived contracts: in particular, it emits no Transfer event,\r\n     * and doesn't clear approvals.\r\n     * @param from address representing the previous owner of the given token ID\r\n     * @param tokenId uint256 ID of the token to be removed from the tokens list of the given address\r\n     */\r\n    function _removeTokenFrom(address from, uint256 tokenId) internal {\r\n        require(ownerOf(tokenId) == from);\r\n        _ownedTokensCount[from] = _ownedTokensCount[from].sub(1);\r\n        _tokenOwner[tokenId] = address(0);\r\n    }\r\n\r\n    /**\r\n     * @dev Internal function to transfer ownership of a given token ID to another address.\r\n     * As opposed to transferFrom, this imposes no restrictions on msg.sender.\r\n     * @param from current owner of the token\r\n     * @param to address to receive the ownership of the given token ID\r\n     * @param tokenId uint256 ID of the token to be transferred\r\n    */\r\n    function _transferFrom(address from, address to, uint256 tokenId) internal {\r\n        require(ownerOf(tokenId) == from);\r\n        require(to != address(0));\r\n\r\n        _clearApproval(tokenId);\r\n\r\n        _ownedTokensCount[from] = _ownedTokensCount[from].sub(1);\r\n        _ownedTokensCount[to] = _ownedTokensCount[to].add(1);\r\n\r\n        _tokenOwner[tokenId] = to;\r\n\r\n        emit Transfer(from, to, tokenId);\r\n    }\r\n\r\n    /**\r\n     * @dev Internal function to invoke `onERC721Received` on a target address\r\n     * The call is not executed if the target address is not a contract\r\n     * @param from address representing the previous owner of the given token ID\r\n     * @param to target address that will receive the tokens\r\n     * @param tokenId uint256 ID of the token to be transferred\r\n     * @param _data bytes optional data to send along with the call\r\n     * @return whether the call correctly returned the expected magic value\r\n     */\r\n    function _checkOnERC721Received(address from, address to, uint256 tokenId, bytes _data) internal returns (bool) {\r\n        if (!to.isContract()) {\r\n            return true;\r\n        }\r\n\r\n        bytes4 retval = IERC721Receiver(to).onERC721Received(msg.sender, from, tokenId, _data);\r\n        return (retval == _ERC721_RECEIVED);\r\n    }\r\n\r\n    /**\r\n     * @dev Private function to clear current approval of a given token ID\r\n     * @param tokenId uint256 ID of the token to be transferred\r\n     */\r\n    function _clearApproval(uint256 tokenId) private {\r\n        if (_tokenApprovals[tokenId] != address(0)) {\r\n            _tokenApprovals[tokenId] = address(0);\r\n        }\r\n    }\r\n}\r\n\r\n\r\n/**\r\n * @title ERC-721 Non-Fungible Token with optional enumeration extension logic\r\n * @dev See https://github.com/ethereum/EIPs/blob/master/EIPS/eip-721.md\r\n */\r\ncontract ERC721Enumerable is ERC165, ERC721, IERC721Enumerable {\r\n    // Mapping from owner to list of owned token IDs\r\n    mapping(address => uint256[]) private _ownedTokens;\r\n\r\n    // Mapping from token ID to index of the owner tokens list\r\n    mapping(uint256 => uint256) private _ownedTokensIndex;\r\n\r\n    // Array with all token ids, used for enumeration\r\n    uint256[] internal _allTokens;\r\n\r\n    // Mapping from token id to position in the allTokens array\r\n    mapping(uint256 => uint256) private _allTokensIndex;\r\n\r\n    bytes4 private constant _InterfaceId_ERC721Enumerable = 0x780e9d63;\r\n    /**\r\n     * 0x780e9d63 ===\r\n     *     bytes4(keccak256('totalSupply()')) ^\r\n     *     bytes4(keccak256('tokenOfOwnerByIndex(address,uint256)')) ^\r\n     *     bytes4(keccak256('tokenByIndex(uint256)'))\r\n     */\r\n\r\n    /**\r\n     * @dev Constructor function\r\n     */\r\n    constructor () public {\r\n        // register the supported interface to conform to ERC721 via ERC165\r\n        _registerInterface(_InterfaceId_ERC721Enumerable);\r\n    }\r\n\r\n    /**\r\n     * @dev Gets the token ID at a given index of the tokens list of the requested owner\r\n     * @param owner address owning the tokens list to be accessed\r\n     * @param index uint256 representing the index to be accessed of the requested tokens list\r\n     * @return uint256 token ID at the given index of the tokens list owned by the requested address\r\n     */\r\n    function tokenOfOwnerByIndex(address owner, uint256 index) public view returns (uint256) {\r\n        require(index < balanceOf(owner));\r\n        return _ownedTokens[owner][index];\r\n    }\r\n\r\n    /**\r\n     * @dev Gets the total amount of tokens stored by the contract\r\n     * @return uint256 representing the total amount of tokens\r\n     */\r\n    function totalSupply() public view returns (uint256) {\r\n        return _allTokens.length;\r\n    }\r\n\r\n    /**\r\n     * @dev Gets the token ID at a given index of all the tokens in this contract\r\n     * Reverts if the index is greater or equal to the total number of tokens\r\n     * @param index uint256 representing the index to be accessed of the tokens list\r\n     * @return uint256 token ID at the given index of the tokens list\r\n     */\r\n    function tokenByIndex(uint256 index) public view returns (uint256) {\r\n        require(index < totalSupply());\r\n        return _allTokens[index];\r\n    }\r\n\r\n    /**\r\n     * @dev Internal function to add a token ID to the list of a given address\r\n     * This function is internal due to language limitations, see the note in ERC721.sol.\r\n     * It is not intended to be called by custom derived contracts: in particular, it emits no Transfer event.\r\n     * @param to address representing the new owner of the given token ID\r\n     * @param tokenId uint256 ID of the token to be added to the tokens list of the given address\r\n     */\r\n    function _addTokenTo(address to, uint256 tokenId) internal {\r\n        super._addTokenTo(to, tokenId);\r\n\r\n        _addTokenToOwnerEnumeration(to, tokenId);\r\n    }\r\n\r\n    /**\r\n     * @dev Internal function to remove a token ID from the list of a given address\r\n     * This function is internal due to language limitations, see the note in ERC721.sol.\r\n     * It is not intended to be called by custom derived contracts: in particular, it emits no Transfer event,\r\n     * and doesn't clear approvals.\r\n     * @param from address representing the previous owner of the given token ID\r\n     * @param tokenId uint256 ID of the token to be removed from the tokens list of the given address\r\n     */\r\n    function _removeTokenFrom(address from, uint256 tokenId) internal {\r\n        super._removeTokenFrom(from, tokenId);\r\n\r\n        _removeTokenFromOwnerEnumeration(from, tokenId);\r\n\r\n        // Since the token is being destroyed, we also clear its index\r\n        // TODO(nventuro): 0 is still a valid index, so arguably this isnt really helpful, remove?\r\n        _ownedTokensIndex[tokenId] = 0;\r\n    }\r\n\r\n    /**\r\n     * @dev Internal function to transfer ownership of a given token ID to another address.\r\n     * As opposed to transferFrom, this imposes no restrictions on msg.sender.\r\n     * @param from current owner of the token\r\n     * @param to address to receive the ownership of the given token ID\r\n     * @param tokenId uint256 ID of the token to be transferred\r\n    */\r\n    function _transferFrom(address from, address to, uint256 tokenId) internal {\r\n        super._transferFrom(from, to, tokenId);\r\n\r\n        _removeTokenFromOwnerEnumeration(from, tokenId);\r\n\r\n        _addTokenToOwnerEnumeration(to, tokenId);\r\n    }\r\n\r\n    /**\r\n     * @dev Internal function to mint a new token\r\n     * Reverts if the given token ID already exists\r\n     * @param to address the beneficiary that will own the minted token\r\n     * @param tokenId uint256 ID of the token to be minted\r\n     */\r\n    function _mint(address to, uint256 tokenId) internal {\r\n        super._mint(to, tokenId);\r\n\r\n        _allTokensIndex[tokenId] = _allTokens.length;\r\n        _allTokens.push(tokenId);\r\n    }\r\n\r\n    /**\r\n     * @dev Internal function to burn a specific token\r\n     * Reverts if the token does not exist\r\n     * Deprecated, use _burn(uint256) instead\r\n     * @param owner owner of the token to burn\r\n     * @param tokenId uint256 ID of the token being burned\r\n     */\r\n    function _burn(address owner, uint256 tokenId) internal {\r\n        super._burn(owner, tokenId);\r\n\r\n        // Reorg all tokens array\r\n        uint256 tokenIndex = _allTokensIndex[tokenId];\r\n        uint256 lastTokenIndex = _allTokens.length.sub(1);\r\n        uint256 lastToken = _allTokens[lastTokenIndex];\r\n\r\n        _allTokens[tokenIndex] = lastToken;\r\n        _allTokens[lastTokenIndex] = 0;\r\n\r\n        _allTokens.length--;\r\n        _allTokensIndex[tokenId] = 0;\r\n        _allTokensIndex[lastToken] = tokenIndex;\r\n    }\r\n\r\n    /**\r\n     * @dev Gets the list of token IDs of the requested owner\r\n     * @param owner address owning the tokens\r\n     * @return uint256[] List of token IDs owned by the requested address\r\n     */\r\n    function _tokensOfOwner(address owner) internal view returns (uint256[] storage) {\r\n        return _ownedTokens[owner];\r\n    }\r\n\r\n    /**\r\n     * @dev Private function to add a token to this extension's ownership-tracking data structures.\r\n     * @param to address representing the new owner of the given token ID\r\n     * @param tokenId uint256 ID of the token to be added to the tokens list of the given address\r\n     */\r\n    function _addTokenToOwnerEnumeration(address to, uint256 tokenId) private {\r\n        uint256 newOwnedTokensLength = _ownedTokens[to].push(tokenId);\r\n        // No need to use SafeMath since the length after a push cannot be zero\r\n        _ownedTokensIndex[tokenId] = newOwnedTokensLength - 1;\r\n    }\r\n\r\n    /**\r\n     * @dev Private function to remove a token from this extension's ownership-tracking data structures. Note that\r\n     * while the token is not assigned a new owner, the _ownedTokensIndex mapping is _not_ updated: this allows for\r\n     * gas optimizations e.g. when performing a transfer operation (avoiding double writes).\r\n     * This has O(1) time complexity, but alters the order of the _ownedTokens array.\r\n     * @param from address representing the previous owner of the given token ID\r\n     * @param tokenId uint256 ID of the token to be removed from the tokens list of the given address\r\n     */\r\n    function _removeTokenFromOwnerEnumeration(address from, uint256 tokenId) private {\r\n        // To prevent a gap in from's tokens array, we store the last token in the index of the token to delete, and\r\n        // then delete the last slot (swap and pop).\r\n\r\n        uint256 lastTokenIndex = _ownedTokens[from].length.sub(1);\r\n        uint256 lastTokenId = _ownedTokens[from][lastTokenIndex];\r\n\r\n        uint256 tokenIndex = _ownedTokensIndex[tokenId];\r\n\r\n        _ownedTokens[from][tokenIndex] = lastTokenId; // Move the last token to the slot of the to-delete token\r\n        _ownedTokensIndex[lastTokenId] = tokenIndex; // Update the moved token's index\r\n\r\n        // Note that this will handle single-element arrays. In that case, both tokenIndex and lastTokenIndex are going\r\n        // to be zero. The swap operation will therefore have no effect, but the token _will_ be deleted during the\r\n        // 'pop' operation.\r\n\r\n        // This also deletes the contents at the last position of the array\r\n        _ownedTokens[from].length--;\r\n\r\n        // Note that _ownedTokensIndex[tokenId] hasn't been cleared: it still points to the old slot (now occcupied by\r\n        // lasTokenId).\r\n    }\r\n}\r\n\r\n\r\ncontract ERC721Metadata is ERC165, ERC721, IERC721Metadata {\r\n    // Token name\r\n    string private _name;\r\n\r\n    // Token symbol\r\n    string private _symbol;\r\n\r\n    // Optional mapping for token URIs\r\n    mapping(uint256 => string) private _tokenURIs;\r\n\r\n    bytes4 private constant InterfaceId_ERC721Metadata = 0x5b5e139f;\r\n    /**\r\n     * 0x5b5e139f ===\r\n     *     bytes4(keccak256('name()')) ^\r\n     *     bytes4(keccak256('symbol()')) ^\r\n     *     bytes4(keccak256('tokenURI(uint256)'))\r\n     */\r\n\r\n    /**\r\n     * @dev Constructor function\r\n     */\r\n    constructor (string name, string symbol) public {\r\n        _name = name;\r\n        _symbol = symbol;\r\n\r\n        // register the supported interfaces to conform to ERC721 via ERC165\r\n        _registerInterface(InterfaceId_ERC721Metadata);\r\n    }\r\n\r\n    /**\r\n     * @dev Gets the token name\r\n     * @return string representing the token name\r\n     */\r\n    function name() external view returns (string) {\r\n        return _name;\r\n    }\r\n\r\n    /**\r\n     * @dev Gets the token symbol\r\n     * @return string representing the token symbol\r\n     */\r\n    function symbol() external view returns (string) {\r\n        return _symbol;\r\n    }\r\n\r\n    /**\r\n     * @dev Returns an URI for a given token ID\r\n     * Throws if the token ID does not exist. May return an empty string.\r\n     * @param tokenId uint256 ID of the token to query\r\n     */\r\n    function tokenURI(uint256 tokenId) external view returns (string) {\r\n        require(_exists(tokenId));\r\n        return _tokenURIs[tokenId];\r\n    }\r\n\r\n    /**\r\n     * @dev Internal function to set the token URI for a given token\r\n     * Reverts if the token ID does not exist\r\n     * @param tokenId uint256 ID of the token to set its URI\r\n     * @param uri string URI to assign\r\n     */\r\n    function _setTokenURI(uint256 tokenId, string uri) internal {\r\n        require(_exists(tokenId));\r\n        _tokenURIs[tokenId] = uri;\r\n    }\r\n\r\n    /**\r\n     * @dev Internal function to burn a specific token\r\n     * Reverts if the token does not exist\r\n     * Deprecated, use _burn(uint256) instead\r\n     * @param owner owner of the token to burn\r\n     * @param tokenId uint256 ID of the token being burned by the msg.sender\r\n     */\r\n    function _burn(address owner, uint256 tokenId) internal {\r\n        super._burn(owner, tokenId);\r\n\r\n        // Clear metadata (if any)\r\n        if (bytes(_tokenURIs[tokenId]).length != 0) {\r\n            delete _tokenURIs[tokenId];\r\n        }\r\n    }\r\n}\r\n\r\n\r\n/**\r\n * @title Full ERC721 Token\r\n * This implementation includes all the required and some optional functionality of the ERC721 standard\r\n * Moreover, it includes approve all functionality using operator terminology\r\n * @dev see https://github.com/ethereum/EIPs/blob/master/EIPS/eip-721.md\r\n */\r\ncontract ERC721Full is ERC721, ERC721Enumerable, ERC721Metadata {\r\n}\r\n\r\n\r\ncontract PauserRole {\r\n    using Roles for Roles.Role;\r\n\r\n    event PauserAdded(address indexed account);\r\n    event PauserRemoved(address indexed account);\r\n\r\n    Roles.Role private _pausers;\r\n\r\n    constructor () internal {\r\n        _addPauser(msg.sender);\r\n    }\r\n\r\n    modifier onlyPauser() {\r\n        require(isPauser(msg.sender));\r\n        _;\r\n    }\r\n\r\n    function isPauser(address account) public view returns (bool) {\r\n        return _pausers.has(account);\r\n    }\r\n\r\n    function addPauser(address account) public onlyPauser {\r\n        _addPauser(account);\r\n    }\r\n\r\n    function renouncePauser() public {\r\n        _removePauser(msg.sender);\r\n    }\r\n\r\n    function _addPauser(address account) internal {\r\n        _pausers.add(account);\r\n        emit PauserAdded(account);\r\n    }\r\n\r\n    function _removePauser(address account) internal {\r\n        _pausers.remove(account);\r\n        emit PauserRemoved(account);\r\n    }\r\n}\r\n\r\n\r\n/**\r\n * @title Pausable\r\n * @dev Base contract which allows children to implement an emergency stop mechanism.\r\n */\r\ncontract Pausable is PauserRole {\r\n    event Paused(address account);\r\n    event Unpaused(address account);\r\n\r\n    bool private _paused;\r\n\r\n    constructor () internal {\r\n        _paused = false;\r\n    }\r\n\r\n    /**\r\n     * @return true if the contract is paused, false otherwise.\r\n     */\r\n    function paused() public view returns (bool) {\r\n        return _paused;\r\n    }\r\n\r\n    /**\r\n     * @dev Modifier to make a function callable only when the contract is not paused.\r\n     */\r\n    modifier whenNotPaused() {\r\n        require(!_paused);\r\n        _;\r\n    }\r\n\r\n    /**\r\n     * @dev Modifier to make a function callable only when the contract is paused.\r\n     */\r\n    modifier whenPaused() {\r\n        require(_paused);\r\n        _;\r\n    }\r\n\r\n    /**\r\n     * @dev called by the owner to pause, triggers stopped state\r\n     */\r\n    function pause() public onlyPauser whenNotPaused {\r\n        _paused = true;\r\n        emit Paused(msg.sender);\r\n    }\r\n\r\n    /**\r\n     * @dev called by the owner to unpause, returns to normal state\r\n     */\r\n    function unpause() public onlyPauser whenPaused {\r\n        _paused = false;\r\n        emit Unpaused(msg.sender);\r\n    }\r\n}\r\n\r\n\r\n/**\r\n * @title ERC721 Non-Fungible Pausable token\r\n * @dev ERC721 modified with pausable transfers.\r\n */\r\ncontract ERC721Pausable is ERC721, Pausable {\r\n    function approve(address to, uint256 tokenId) public whenNotPaused {\r\n        super.approve(to, tokenId);\r\n    }\r\n\r\n    function setApprovalForAll(address to, bool approved) public whenNotPaused {\r\n        super.setApprovalForAll(to, approved);\r\n    }\r\n\r\n    function transferFrom(address from, address to, uint256 tokenId) public whenNotPaused {\r\n        super.transferFrom(from, to, tokenId);\r\n    }\r\n}\r\n\r\n\r\ncontract MinterRole {\r\n    using Roles for Roles.Role;\r\n\r\n    event MinterAdded(address indexed account);\r\n    event MinterRemoved(address indexed account);\r\n\r\n    Roles.Role private _minters;\r\n\r\n    constructor () internal {\r\n        _addMinter(msg.sender);\r\n    }\r\n\r\n    modifier onlyMinter() {\r\n        require(isMinter(msg.sender));\r\n        _;\r\n    }\r\n\r\n    function isMinter(address account) public view returns (bool) {\r\n        return _minters.has(account);\r\n    }\r\n\r\n    function addMinter(address account) public onlyMinter {\r\n        _addMinter(account);\r\n    }\r\n\r\n    function renounceMinter() public {\r\n        _removeMinter(msg.sender);\r\n    }\r\n\r\n    function _addMinter(address account) internal {\r\n        _minters.add(account);\r\n        emit MinterAdded(account);\r\n    }\r\n\r\n    function _removeMinter(address account) internal {\r\n        _minters.remove(account);\r\n        emit MinterRemoved(account);\r\n    }\r\n}\r\n\r\n\r\n/**\r\n * @title ERC721Mintable\r\n * @dev ERC721 minting logic\r\n */\r\ncontract ERC721Mintable is ERC721, MinterRole {\r\n    /**\r\n     * @dev Function to mint tokens\r\n     * @param to The address that will receive the minted tokens.\r\n     * @param tokenId The token id to mint.\r\n     * @return A boolean that indicates if the operation was successful.\r\n     */\r\n    function mint(address to, uint256 tokenId) internal onlyMinter returns (bool) {\r\n        _mint(to, tokenId);\r\n        return true;\r\n    }\r\n}\r\n\r\n\r\ncontract ERC721Holder is IERC721Receiver {\r\n    function onERC721Received(address, address, uint256, bytes) public returns (bytes4) {\r\n        return this.onERC721Received.selector;\r\n    }\r\n}\r\n\r\n\r\ncontract Cryptomeetup is ERC721Full, ERC721Pausable, ERC721Mintable, ERC721Holder, Config {\r\n    mapping (uint256 => uint256) private priceOf;\r\n\r\n    struct Global {\r\n        uint256 begin;\r\n        uint256 end;\r\n        address lastone;\r\n    }\r\n\r\n    mapping(uint256 => Global) global; \r\n    uint256 indexOfGlobal;\r\n\r\n    event Bought(uint256 indexed _itemId, address indexed _owner, uint256 _price);\r\n    event Sold(uint256 indexed _itemId, address indexed _owner, uint256 _price);    \r\n\r\n    constructor() ERC721Metadata(\"cryptomeetup\", \"CMU\") public {\r\n    }\r\n\r\n    function transferERC721Token(address contractaddr, uint256 tokenId) public onlyMinter {\r\n        require(contractaddr.isContract());\r\n        IERC721 _tokenobj = IERC721(contractaddr);\r\n        _tokenobj.safeTransferFrom(address(this), msg.sender, tokenId);\r\n    }\r\n\r\n    function transferERC20Token(address contractaddr) public onlyMinter {\r\n        require(contractaddr.isContract());\r\n        IERC20 _tokenobj = IERC20(contractaddr);\r\n        uint256 _amount = _tokenobj.balanceOf(address(this));\r\n        _tokenobj.transfer(msg.sender, _amount);\r\n    }\r\n\r\n    function mint(address to, uint256 tokenId, uint256 tokenprice) public onlyMinter returns (bool) {\r\n        mint(to, tokenId);\r\n        priceOf[tokenId] = tokenprice;\r\n        return true;\r\n    }\r\n\r\n    function init(uint256 l, uint256 r, uint256 price) public onlyMinter {\r\n        for(uint256 i = l; i < r; i++) {\r\n            mint(msg.sender, i, price);\r\n        }\r\n\r\n        indexOfGlobal = 1;\r\n        global[indexOfGlobal].begin = now;\r\n        global[indexOfGlobal].end = now.add(period);\r\n        global[indexOfGlobal].lastone = address(0);\r\n    }\r\n\r\n    function calculateDevCut(uint256 price) public view returns (uint256 _devCut) {\r\n        if (price < increaseLimit1) {\r\n            return price.mul(devCut1).div(100); // 5%\r\n        } else if (price < increaseLimit2) {\r\n            return price.mul(devCut2).div(100); // 4%\r\n        } else if (price < increaseLimit3) {\r\n            return price.mul(devCut3).div(100); // 3%\r\n        } else if (price < increaseLimit4) {\r\n            return price.mul(devCut3).div(100); // 3%\r\n        } else {\r\n            return price.mul(devCut4).div(100); // 2%\r\n        }\r\n    }\r\n\r\n    function calculateNextPrice(uint256 _price) public view returns (uint256 _nextPrice) {\r\n        if (_price < increaseLimit1) {\r\n            return _price.mul(200).div(95);\r\n        } else if (_price < increaseLimit2) {\r\n            return _price.mul(135).div(96);\r\n        } else if (_price < increaseLimit3) {\r\n            return _price.mul(125).div(97);\r\n        } else if (_price < increaseLimit4) {\r\n            return _price.mul(117).div(97);\r\n        } else {\r\n            return _price.mul(115).div(98);\r\n        }\r\n    }  \r\n\r\n    function nextPriceOf(uint256 tokenID) public view returns (uint256) {\r\n        return calculateNextPrice(priceOfToken(tokenID));\r\n    }    \r\n\r\n    function buy(uint256 tokenId) payable public {\r\n        require(priceOfToken(tokenId) > 0);\r\n        require(ownerOf(tokenId) != address(0));        \r\n\r\n        if(global[indexOfGlobal].end <= now) {\r\n            newGlobal();\r\n            buyinternal(tokenId, msg.sender, msg.value);\r\n        } else {\r\n            buyinternal(tokenId, msg.sender, msg.value);\r\n        }\r\n    }\r\n\r\n    function buyinternal(uint256 tokenId, address payer, uint256 amount)  internal {\r\n        require(priceOfToken(tokenId) > 0);\r\n        require(ownerOf(tokenId) != address(0));\r\n        require(amount >= priceOfToken(tokenId));\r\n        require(ownerOf(tokenId) != payer);\r\n        require(!payer.isContract());\r\n        require(payer != address(0));\r\n        require(global[indexOfGlobal].end > now);\r\n\r\n        address oldOwner = ownerOf(tokenId);\r\n        address newOwner = payer;\r\n        uint256 price = priceOfToken(tokenId);\r\n        uint256 excess = amount.sub(price);\r\n\r\n        _transferFrom(oldOwner, newOwner, tokenId);\r\n        priceOf[tokenId] = nextPriceOf(tokenId);\r\n\r\n        emit Bought(tokenId, newOwner, price);\r\n        emit Sold(tokenId, oldOwner, price);\r\n\r\n        // Devevloper's cut which is left in contract and accesed by\r\n        // `withdrawAll` and `withdrawAmountTo` methods.\r\n        uint256 devCut = calculateDevCut(price);\r\n\r\n        // Transfer payment to old owner minus the developer's cut.\r\n        oldOwner.transfer(price.sub(devCut));\r\n\r\n        if (excess > 0) {\r\n            newOwner.transfer(excess);\r\n        }\r\n\r\n    }\r\n\r\n    function newGlobal() internal {\r\n        for (uint256 i = 1; i <= _allTokens.length; i++) {\r\n            priceOf[i] = initPrice;\r\n        }\r\n        indexOfGlobal++;\r\n        global[indexOfGlobal].begin = now;\r\n        global[indexOfGlobal].end = now.add(period);\r\n        global[indexOfGlobal].lastone = address(0);\r\n    }\r\n\r\n\r\n    /* Withdraw */\r\n    /*\r\n        NOTICE: These functions withdraw the developer's cut which is left\r\n        in the contract by `buy`. User funds are immediately sent to the old\r\n        owner in `buy`, no user funds are left in the contract.\r\n    */\r\n    function withdrawAll() onlyMinter public {\r\n        msg.sender.transfer(address(this).balance);\r\n    }\r\n\r\n    function withdrawAmount(uint256 _amount) onlyMinter public {\r\n        msg.sender.transfer(_amount);\r\n    }\r\n\r\n    function priceOfToken(uint256 tokenID) public view returns (uint256) {\r\n        return priceOf[tokenID];\r\n    }    \r\n\r\n    function allOf (uint256 _itemId) external view returns (address _owner, uint256 _price, uint256 _nextPrice) {\r\n        return (ownerOf(_itemId), priceOfToken(_itemId), nextPriceOf(_itemId));\r\n    }\r\n\r\n    function getIndexOfGlobal() public view returns(uint256) {\r\n        return indexOfGlobal;\r\n    }\r\n\r\n    function getGlobal(uint256 index) public view returns(uint256 _begin, uint256 _end, address _lastone) {\r\n        require(index <= indexOfGlobal);\r\n\r\n        _begin = global[index].begin;\r\n        _end = global[index].end;\r\n        _lastone = global[index].lastone;\r\n    }\r\n\r\n    function getNowGlobal() public view returns(uint256, uint256, address) {\r\n        getGlobal(indexOfGlobal);\r\n    }\r\n}",
  "sourcePath": "C:\\Users\\xing9\\Documents\\GitHub\\troncryptomeetup\\contracts\\Cryptomeetup.sol",
  "compiler": {
    "name": "solc",
    "version": "0.4.24-develop.2018.8.28+commit.3ba0cdec.mod.Emscripten.clang"
  },
  "schemaVersion": "2.0.1",
  "updatedAt": "2018-12-17T07:01:43.838Z"
}