{
  "contractName": "TestContract",
  "abi": [
    {
      "constant": false,
      "inputs": [
        {
          "name": "key",
          "type": "uint256"
        },
        {
          "name": "value",
          "type": "uint256"
        }
      ],
      "name": "setuint256",
      "outputs": [],
      "payable": false,
      "stateMutability": "nonpayable",
      "type": "function"
    },
    {
      "constant": true,
      "inputs": [
        {
          "name": "key",
          "type": "uint256"
        }
      ],
      "name": "getuint256",
      "outputs": [
        {
          "name": "value",
          "type": "uint256"
        }
      ],
      "payable": false,
      "stateMutability": "view",
      "type": "function"
    },
    {
      "constant": false,
      "inputs": [],
      "name": "teststore",
      "outputs": [],
      "payable": true,
      "stateMutability": "payable",
      "type": "function"
    },
    {
      "constant": true,
      "inputs": [
        {
          "name": "addr",
          "type": "address"
        }
      ],
      "name": "getstore",
      "outputs": [
        {
          "name": "",
          "type": "uint256"
        }
      ],
      "payable": false,
      "stateMutability": "view",
      "type": "function"
    }
  ],
  "bytecode": "0x608060405234801561001057600080fd5b5061023b806100206000396000f300608060405260043610610062576000357c0100000000000000000000000000000000000000000000000000000000900463ffffffff1680634ba03900146100675780638e31b2f11461009e5780639d5d017f146100f5578063ab262d0214610136575b600080fd5b34801561007357600080fd5b5061009c6004803603810190808035906020019092919080359060200190929190505050610140565b005b3480156100aa57600080fd5b506100df600480360381019080803573ffffffffffffffffffffffffffffffffffffffff16906020019092919050505061015b565b6040518082815260200191505060405180910390f35b34801561010157600080fd5b50610120600480360381019080803590602001909291905050506101a4565b6040518082815260200191505060405180910390f35b61013e6101c0565b005b80600080848152602001908152602001600020819055505050565b6000600260008373ffffffffffffffffffffffffffffffffffffffff1673ffffffffffffffffffffffffffffffffffffffff168152602001908152602001600020549050919050565b6000806000838152602001908152602001600020549050919050565b34600260003373ffffffffffffffffffffffffffffffffffffffff1673ffffffffffffffffffffffffffffffffffffffff168152602001908152602001600020600082825401925050819055505600a165627a7a723058207b2947cea724d4db9d4cd2fdfa8f12731fb4a5a9141ed41341ef012da3f94ccc0029",
  "source": "pragma solidity ^0.4.23;\r\ncontract TestContract {\r\n\r\n    mapping(uint256 => uint256) uint256data;\r\n    mapping(address => string)  stringdata;\r\n    mapping(address => uint256) storedata;\r\n\r\n    function setuint256(uint256 key, uint256 value) public {\r\n        uint256data[key] = value;\r\n    }\r\n    \r\n    function getuint256(uint256 key) view public returns (uint256 value) {\r\n        value = uint256data[key];\r\n    }\r\n    /*\r\n    function testtransfer(address to) public {\r\n        to.transfer(0.01 trx);\r\n    }*/\r\n    \r\n    function teststore() public payable {\r\n        storedata[msg.sender] += msg.value;\r\n    }\r\n\r\n    \r\n    function getstore(address addr) public view returns(uint256) {\r\n        return storedata[addr];\r\n    }\r\n}",
  "sourcePath": "C:\\Users\\xing9\\Documents\\workspace\\tron\\test-\\Test\\bare-box\\contracts\\TestContract.sol",
  "compiler": {
    "name": "solc",
    "version": "0.4.24-develop.2018.8.28+commit.3ba0cdec.mod.Emscripten.clang"
  },
  "schemaVersion": "2.0.1",
  "updatedAt": "2018-12-11T08:44:17.421Z"
}